:100000000C94DE000C94FB000C94FB000C94FB00A1
:100010000C94FB000C94FB000C94FB000C94FB0074
:100020000C94FB000C94FB000C94FB000C94FB0064
:100030000C94FB000C94FB000C94FB000C94FB0054
:100040000C94BA020C94FB000C94FB000C94FB0083
:100050000C94FB000C94FB000C94FB000C94FB0034
:100060000C94FB000C94FB0000407A10F35A00A0A3
:10007000724E18090010A5D4E80000E87648170071
:1000800000E40B54020000CA9A3B000000E1F505B1
:10009000000080969800000040420F000000A086FB
:1000A00001000000102700000000E803000000002D
:1000B0006400000000000A000000000001000000D1
:1000C00000002C76D888DC674F0823DFC1DFAE59EB
:1000D000E1B1B796E5E3E453C63AE651997696E87E
:1000E000E6C28426EB898C9B62ED407C6FFCEFBC02
:1000F0009C9F40F2BAA56FA5F490055A2AF75C932D
:100100006B6CF9676DC11BFCE0E40D47FEF520E662
:10011000B500D0ED902E0300943577050080841E45
:10012000080000204E0A000000C80C333333330FA0
:10013000986E12831141EF8D2114893BE65516CF3D
:10014000FEE6DB18D1844B381BF77C1D901DA4BB49
:10015000E424203284725E228100C9F124ECA1E5FE
:100160003D2700000000240027002A0000000000B6
:10017000250028002B000000000023002600290095
:10018000040404040404040402020202020203033D
:100190000303030301020408102040800102040845
:1001A00010200102040810200000000800020100D5
:1001B00000030407000000000000000011241FBE1F
:1001C000CFEFD8E0DEBFCDBF13E0A0E0B1E0E0E6C6
:1001D000F5E102C005900D92AA30B107D9F723E0EE
:1001E000AAE0B3E001C01D92AE33B207E1F70E946E
:1001F00004030C94AE0A0C940000833081F028F4C0
:10020000813099F08230A9F008958730A9F08830C4
:10021000C9F08430B1F4809180008F7D03C080915B
:1002200080008F7780938000089584B58F7784BD98
:10023000089584B58F7DFBCF8091B0008F77809338
:10024000B00008958091B0008F7DF9CFCF93DF93F8
:10025000282F30E0F901E855FE4F8491F901EC5662
:10026000FE4FD491F901E058FE4FC491CC23A1F088
:1002700081110E94FD00EC2FF0E0EE0FFF1FEA5805
:10028000FE4FA591B491EC91ED2381E090E009F44B
:1002900080E0DF91CF91089580E090E0FACF1F9346
:1002A000CF93DF93282F30E0F901E855FE4F84917A
:1002B000F901EC56FE4FD491F901E058FE4FC4917C
:1002C000CC23A9F0162F81110E94FD00EC2FF0E045
:1002D000EE0FFF1FE459FE4FA591B4918FB7F8942C
:1002E000EC91111108C0D095DE23DC938FBFDF9114
:1002F000CF911F910895DE2BF8CFCF93DF9390E03D
:10030000FC01EC56FE4F249180589E4FFC018491D5
:100310008823D1F090E0880F991FFC01EE59FE4F21
:10032000A591B491FC01E459FE4FC591D49161119E
:100330000EC09FB7F8948C91E22FE0958E238C939A
:100340002881E223E8839FBFDF91CF9108958FB783
:10035000F894EC91E22BEC938FBFF6CF3FB7F89473
:1003600080913A0390913B03A0913C03B0913D03EF
:1003700026B5A89B05C02F3F19F00196A11DB11D00
:100380003FBFBA2FA92F982F8827BC01CD01620F3C
:10039000711D811D911D42E0660F771F881F991FF7
:1003A0004A95D1F708958F929F92AF92BF92CF92C4
:1003B000DF92EF92FF924B015C010E94AE016B0154
:1003C0007C010E94AE016C197D098E099F09683E6F
:1003D000734081059105A8F321E0821A9108A108D4
:1003E000B10888EEC80E83E0D81EE11CF11C811410
:1003F0009104A104B10429F7FF90EF90DF90CF9012
:10040000BF90AF909F908F9008950F931F93CF93BD
:10041000DF93D0E0C0E0082F10E060E08DE00E94A4
:100420004F01B8010C2E02C0660F771F0A94E2F745
:10043000660F672F661F770B61708CE00E944F017B
:1004400061E08DE00E944F012196C830D10529F767
:10045000DF91CF911F910F9108951F93CF93DF9359
:10046000182F60E08AE00E944F0161E089E00E945D
:100470004F01C8EFD1E0812F0E9405022197D9F7E3
:1004800061E08AE0DF91CF911F910C944F01CF93EF
:10049000C82F60E08AE00E944F0160E089E00E947E
:1004A0004F018C2F0E94050261E08AE0CF910C94ED
:1004B0004F01CF92DF92EF92FF920F931F93CF9352
:1004C000DF9300D01F92CDB7DEB76983F42E5A8335
:1004D00080640E9447028981880F9981890F880F63
:1004E00080680E94470260E08AE00E944F0161E05C
:1004F00089E00E944F010F2D1A8185E0E82EF80156
:10050000F1908F01FF2039F1FE9C600111241B82C4
:100510001A82F0EEFF0DF98389818036A0F4EA811A
:10052000FB81EC0DFD1DEB59FF4F80810E94050200
:10053000EA81FB813196FB83EA83359769F780E096
:100540000E940502DCCF90EBF912F2CFEA81FB8129
:10055000E050FF4FEACF61E08AE00F900F900F90DC
:10056000DF91CF911F910F91FF90EF90DF90CF908F
:100570000C944F011F920F920FB60F9211242F93DC
:100580003F938F939F93AF93BF9380913603909146
:100590003703A0913803B09139033091350323E03C
:1005A000230F2D3758F50196A11DB11D209335035A
:1005B0008093360390933703A0933803B0933903A5
:1005C00080913A0390913B03A0913C03B0913D038D
:1005D0000196A11DB11D80933A0390933B03A09314
:1005E0003C03B0933D03BF91AF919F918F913F9199
:1005F0002F910F900FBE0F901F90189526E8230F94
:100600000296A11DB11DD2CF789484B5826084BDBD
:1006100084B5816084BD85B5826085BD85B5816006
:1006200085BD80916E00816080936E001092810084
:10063000809181008260809381008091810081603F
:100640008093810080918000816080938000809100
:10065000B10084608093B1008091B000816080938C
:10066000B00080917A00846080937A0080917A0053
:10067000826080937A0080917A00816080937A0012
:1006800080917A00806880937A001092C10061E0C6
:100690008DE00E947D0161E08CE00E947D0160E0C0
:1006A0008BE00E947D0161E08AE00E947D0161E0B3
:1006B00089E00E947D0161E088E00E947D0160E0A8
:1006C00088E00E944F0164E670E080E090E00E94C4
:1006D000D30161E088E00E944F0181E20E9447025D
:1006E00088EC0E94470286E00E94470283E10E9454
:1006F000470280E20E9447028CE00E9447028FEF8F
:100700000E942D0280E00E942D024BED52E062E03B
:1007100080E00E94590246EE52E065E082E00E94CD
:10072000590245E3442E43E0542E53E7652E712CC5
:1007300065E2362E7CEE872E72E0972ECAE0D3E07B
:10074000EDEFCE2EE2E0DE2EF0E0AF2EF0E0BF2E99
:1007500061E083E00E947D0160E083E00E944F0140
:1007600064E170E080E090E00E94D30161E083E00A
:100770000E944F0160E083E00E947D0183E00E94BF
:1007800026010197D9F383E00E942601892BD9F332
:1007900083E00E9426010197D9F330E3E32E33E092
:1007A000F32E07E010E0212C83E00E942601892B24
:1007B000D9F3C3010197F1F783E00E94260181304C
:1007C000910531F4002E01C0880F0A94EAF7280E33
:1007D00083E00E9426010197D9F30150110920F707
:1007E000F70121927F014E165F06D9F68091300302
:1007F00060913103382F360F90913203390F4091B9
:100800003303340F20913403321369C0292F30E0B1
:10081000322F2227240F311D30932F0320932E03D4
:1008200090E0982F8827680F792F711D072E000CF4
:10083000880B990B0E94810720E030E040E251E4F0
:100840000E940D070CE113E021E046E00E948104C4
:100850001F923F92C8019F930F939F928F92DF93B5
:10086000CF930E940D084AE053E060E084E00E94CC
:10087000590260912E0370912F03EDB7FEB73896A1
:100880000FB6F894FEBF0FBEEDBF77FD35C0072E43
:10089000000C880B990B0E94810720E030E040E2B9
:1008A00051E40E940D070CE113E021E046E00E94B4
:1008B0008104C8019F930F93DF92CF92DF93CF9370
:1008C0000E940D084AE053E060E085E00E94590272
:1008D0000F900F900F900F900F900F9006C047EF62
:1008E00052E062E080E00E945902A114B10409F4D0
:1008F0002FCF0E9400002CCF7F77719561957109F1
:10090000C6CFEF920F931F93CF93DF93E80134E0AC
:1009100047FD34E1042E000C550B57FF03C05195E1
:1009200041955109E32E022F242FAE010E949F040E
:10093000CE01DF91CF911F910F91EF900895A9E023
:10094000B0E0E5EAF4E00C94DC066A01F22EB02E89
:10095000102FFBE3AF2EA01608F41BE31F5F012F3F
:1009600027E0AE014F5F5F4F0E94FE05BC01898109
:10097000982F9970913009F43FC09BE2E1FC04C0CC
:100980009E2D9170E0FC3AC05E2D5071E82FE8700A
:1009900083FF46C084E0911101C083E0EF2DE81B86
:1009A0008F1508F0E0E0D6018E2F20E2552351F19B
:1009B000992329F0D6019C93C60101966C019601FA
:1009C0002D5F3F4FE2FE24C08EE4D6018C9391E46C
:1009D00011969C93119712968C93D9018E2F90E2C9
:1009E00081111BC0E20FF32FF11D10828EEF9FEFDC
:1009F0002996ECE00C94F8069DE2C6CF90E2C4CFB5
:100A00002D9381508111FCCFCE0ED11CE0E0D0CFD0
:100A10008EE6D6018C9391E6DBCF9D938150E0CF9B
:100A2000482F447082FF3DC084E0911101C083E0F3
:100A30008F1510F4EF2DE81BD6018E2F20E25523E1
:100A400009F1992329F0D6019C93C60101966C0106
:100A500096012D5F3F4FE2FE1BC089E4D6018C93C7
:100A60008EE411968C93119786E412968C93D9019B
:100A70008E2F90E2882309F4B5CF9D938150FACF51
:100A80002D9381508111FCCFCE0ED11CE0E0D9CF47
:100A900089E6D6018C938EE611968C93119786E6A3
:100AA000E4CF9B0177FF02C030E020E0A1E0B0E09E
:100AB000911102C0B0E0A0E0F9013196AE0FBF1F66
:100AC0008B2C912CBB2009F461C05401EFEFAE1ABE
:100AD000BE0AAA0DBB1DFA161B0619F014F04F2D05
:100AE0004A1B511188C0E3FC59C07601A42FB0E223
:100AF000A1114FC0C40ED11C992309F45BC040E082
:100B0000D6011196F60190836D01552309F448C072
:100B1000012F060F9A81582F507184FF03C0913323
:100B200009F4015010160CF047C0093008F008E035
:100B3000EEE2FE2E5B01A01AB1088501919481942A
:100B400091082F3F320729F4D601FC92F601319625
:100B50006F016217730794F1021713077CF5DB012D
:100B6000A21BB30BAA24A394B12CAC0EBD1EAA0DDC
:100B7000BB1D11968C9121503109D6011196281573
:100B80003905F4F0F60180836D01DBCFB12CA12C87
:100B9000A0CFF701B1937F01A150AACF9111B0CF9F
:100BA000D601942F50E302C05D9391509111FCCF78
:100BB000C40ED11C40E0ACCF01E0BACF80E3DBCF64
:100BC0006217730731F4963388F4953311F4552383
:100BD00069F0F6018083FD01842F90E2811108C045
:100BE000A40FB11D1C9290E080E002CF81E3F1CF11
:100BF00091938150F3CF911183CF8ACF283008F0A1
:100C000027E03327DA01990F311D87FD91600096A7
:100C10006105710539F432602E5F3D9330E32A950A
:100C2000E1F708959F3F30F080387105610509F0C4
:100C30003C5F3C5F3D93913008F08068911DDF93ED
:100C4000CF931F930F93FF92EF92192F987F969552
:100C5000E92F96959695E90FFF27EE53FF4F9927B9
:100C60003327EE24FF24A701E70105900894079499
:100C700028F4360FE71EF81E491F511D660F771F17
:100C8000881F991F0694A1F70590079428F4E70E92
:100C9000F81E491F561FC11D770F881F991F661F19
:100CA0000694A1F70590079428F4F80E491F561FE3
:100CB000C71FD11D880F991F661F771F0694A1F7C4
:100CC0000590079420F4490F561FC71FD81F990F8E
:100CD000661F771F881F0694A9F7849110951770D7
:100CE00041F0D695C79557954795F794E7941A958F
:100CF000C1F7E8E6F0E0689415901591359165919B
:100D0000959105907FE27395E118F10A430B560B1C
:100D1000C90BD009C0F7E10CF11E431F561FC91FB4
:100D2000D01D7EF4703311F48A95E6CFE89401501B
:100D300030F0080F0AF40027021708F4202F23953B
:100D4000022F7A3328F079E37D932A95E9F710C0D2
:100D50007D932A9589F6069497956795379517950B
:100D60001794E118F10A430B560BC90BD00998F000
:100D700023957E9173957A3308F070E37C9320136A
:100D8000B8F77E9170617D9330F0839571E37D9328
:100D900070E32A95E1F71124EF90FF900F911F91D6
:100DA000CF91DF91992787FD909508952F923F92DB
:100DB0004F925F926F927F928F929F92AF92BF926B
:100DC000CF92DF92EF92FF920F931F93CF93DF9317
:100DD000CDB7DEB7CA1BDB0B0FB6F894DEBF0FBE74
:100DE000CDBF09942A88398848885F846E847D84C1
:100DF0008C849B84AA84B984C884DF80EE80FD80C3
:100E00000C811B81AA81B981CE0FD11D0FB6F89438
:100E1000DEBF0FBECDBFED0108950E9421070C94E7
:100E2000D3070E94CC0758F00E94C50740F029F470
:100E30005F3F29F00C94BC0751110C9407080C94E7
:100E4000C2070E94E40768F39923B1F3552391F395
:100E5000951B550BBB27AA2762177307840738F029
:100E60009F5F5F4F220F331F441FAA1FA9F335D086
:100E70000E2E3AF0E0E832D091505040E695001C3A
:100E8000CAF72BD0FE2F29D0660F771F881FBB1FF4
:100E9000261737074807AB07B0E809F0BB0B802DD2
:100EA000BF01FF2793585F4F3AF09E3F510578F0FE
:100EB0000C94BC070C9407085F3FE4F3983ED4F30E
:100EC000869577956795B795F7959F5FC9F7880FD2
:100ED000911D9695879597F90895E1E0660F771F24
:100EE000881FBB1F621773078407BA0720F0621BB5
:100EF000730B840BBA0BEE1F88F7E0950895E89406
:100F000009C097FB3EF490958095709561957F4F51
:100F10008F4F9F4F9923A9F0F92F96E9BB279395FF
:100F2000F695879577956795B795F111F8CFFAF40F
:100F3000BB0F11F460FF1BC06F5F7F4F8F4F9F4F40
:100F400016C0882311F096E911C0772321F09EE89E
:100F5000872F762F05C0662371F096E8862F70E004
:100F600060E02AF09A95660F771F881FDAF7880FDE
:100F70009695879597F9089597F99F6780E870E0AF
:100F800060E008959FEF80EC089500240A941616FF
:100F9000170618060906089500240A941216130667
:100FA000140605060895092E0394000C11F48823F5
:100FB00052F0BB0F40F4BF2B11F460FF04C06F5F11
:100FC0007F4F8F4F9F4F089557FD9058440F551FE7
:100FD00059F05F3F71F04795880F97FB991F61F0BB
:100FE0009F3F79F087950895121613061406551F32
:100FF000F2CF4695F1DF08C0161617061806991F9E
:10100000F1CF86957105610508940895E894BB2792
:1010100066277727CB0197F90895AEE0B0E0E3E1CA
:10102000F8E00C94E4060D891E8986E08C831A830F
:1010300009838FEF9FE79E838D83AE01475E5F4FED
:101040006F89788DCE0101960E9430082F813885F6
:10105000020F131FF80110822E96E4E00C94000793
:10106000ABE0B0E0E6E3F8E00C94D6067C013B018F
:101070008A01FC0117821682838181FFC8C1CE01DB
:1010800001965C01F7019381F30193FD859193FF34
:1010900081913F01882309F453C1853239F493FDCE
:1010A000859193FF81913F01853229F4B70190E04A
:1010B0000E94200AE7CF912C212C312CFFE1F3155F
:1010C00038F08B3211F190F4803209F1833229F13A
:1010D00037FC3CC020ED280F2A3050F536FE20C0EA
:1010E0008AE0989E200D1124922E06C08D3291F038
:1010F000803371F7689430F8F30193FD859193FF85
:1011000081913F018111DACF21C0689431F8689450
:1011100032F8F2CF689433F8EFCF689434F8ECCF1C
:10112000EAE02E9E200D1124222E689435F8E4CF9B
:101130008E3229F436FC04C1689436F8DDCF8C3643
:1011400019F4689437F8D8CF8836B1F2982F9F7D7C
:1011500095549330E0F08336A1F18337C1F18335A4
:1011600009F063C02801F2E04F0E511CF801C08065
:10117000D180692D70E036FC02C06FEF7FEFC601B1
:101180000E940A0A4C01689437F882010AC00C5F79
:101190001F4FFFE3F98388248394912C6501E89421
:1011A00037F833FE2DC0522C8114910471F555206F
:1011B00009F468CFB70180E290E00E94200A5A94B7
:1011C000F6CFF801808189830E5F1F4FE4CF28019D
:1011D000F2E04F0E511CF801C080D180692D70E003
:1011E00036FC02C06FEF7FEFC6010E94150A4C016A
:1011F0008201D5CFB70180E290E00E94200A2A94B4
:101200002814190409F0B0F7CECFF60137FC859108
:1012100037FE81916F01B70190E00E94200A5110C2
:101220005A94F1E08F1A9108BFCF843619F08936AD
:1012300009F077C0F80137FE6BC06081718182814F
:1012400093810C5F1F4FF32DFF763F2E97FF09C050
:1012500090958095709561957F4F8F4F9F4F6894C3
:1012600037F82AE030E0A5010E94500AC82ECA18BB
:101270008C2C432C36FE0CC0E89440F8C91440F482
:1012800034FE05C032FC03C0F32DFE7E4F2E892CA8
:1012900044FE95C0FE01EC0DF11D8081803309F004
:1012A00087C0242D297E422E842D8870582E43FC21
:1012B00095C040FE8FC09C2C821418F42C0C922CEC
:1012C000981844FE91C0B70180E390E00E94200A84
:1012D00042FE09C088E790E041FE02C088E590E048
:1012E000B7010E94200AC91408F48AC0CA94D12CFC
:1012F0009FEFC91AD90ACA0CDB1CF60182916F0153
:10130000B70190E00E94200AAC14BD04B1F74FCFA2
:1013100060817181072E000C880B990B0E5F1F4FA7
:1013200092CFD32CE894D4F82AE030E0853739F115
:10133000232D297FD22E8F3601F148F48835A9F06C
:10134000F701868197812B96E2E10C94F2068037B3
:1013500049F08837A9F7D4FE02C06894D2F820E19A
:1013600030E00DC06894D4F8F6CF34FE03C0822F6D
:101370008660D82E20E132E002C028E030E0F8019B
:10138000D7FE0FC060817181828193810C5F1F4FF6
:10139000A5010E94500AC82ECA183D2CE89437F8BF
:1013A00067CF6081718190E080E00E5F1F4FF0CFCA
:1013B00042FC02C0839478CF8394839475CF842DAC
:1013C000867809F471CFF6CFB70180E290E00E94F1
:1013D000200A83948214C0F3512C73CF522C5818D6
:1013E000821408F46ECFF8CF842D867809F47BCF71
:1013F0008BE241FE80E247FC8DE2B70190E071CFC5
:10140000B70180E390E00E94200A9A946CCF8FEF9E
:101410009FEF99CFFC010590615070400110D8F703
:10142000809590958E0F9F1F0895FC01615070402C
:1014300001900110D8F7809590958E0F9F1F089509
:101440000F931F93CF93DF93182F092FEB018B81FD
:1014500081FD09C01FEF0FEF812F902FDF91CF91FA
:101460001F910F91089582FF14C02E813F818C81BE
:101470009D81281739073CF4E881F981CF01019655
:101480009983888310838E819F8101969F838E83A9
:10149000E3CFE885F985812F0995892BA1F3DACF70
:1014A000FA01AA27283051F1203181F1E8946F9395
:1014B0006E7F6E5F7F4F8F4F9F4FAF4FB1E03ED03B
:1014C000B4E03CD0670F781F891F9A1FA11D680FD9
:1014D000791F8A1F911DA11D6A0F711D811D911D0C
:1014E000A11D20D009F468943F912AE0269F112481
:1014F0003019305D3193DEF6CF010895462F4770E5
:10150000405D4193B3E00FD0C9F7F6CF462F4F703F
:10151000405D4A3318F0495D31FD4052419302D09D
:10152000A9F7EACFB4E0A695979587957795679543
:10153000BA95C9F700976105710508959B01AC0143
:101540000A2E06945795479537952795BA95C9F76A
:10155000620F731F841F951FA01D0895F894FFCF7D
:101560000609090906000000000000005F000000F5
:1015700007000700147F147F14242A7F2A122313E4
:1015800008646236495522500005030000001C2201
:1015900041000041221C00082A1C2A0808083E08B5
:1015A000080050300000080808080800303000002B
:1015B00020100804023E5149453E00427F4000424F
:1015C000615149462141454B311814127F1027457E
:1015D0004545393C4A4949300171090503364949B5
:1015E0004936064949291E003636000000563600A5
:1015F0000000081422411414141414412214080089
:101600000201510906324979413E7E1111117E7F56
:10161000494949363E414141227F4141221C7F498F
:101620004949417F090901013E414151327F080882
:10163000087F00417F41002040413F017F08142284
:10164000417F404040407F0204027F7F0408107FBA
:101650003E4141413E7F090909063E4151215E7FDD
:1016600009192946464949493101017F01013F4095
:1016700040403F1F2040201F7F2018207F63140818
:1016800014630304780403615149454300007F411A
:1016900041020408102041417F00000402010204BD
:1016A0004040404040000102040020545454787FE0
:1016B000484444383844444420384444487F3854EB
:1016C000545418087E090102081454543C7F08043D
:1016D000047800447D40002040443D00007F1028F5
:1016E0004400417F40007C041804787C080404789E
:1016F00038444444387C14141408081414187C7CAE
:10170000080404084854545420043F4440203C40FA
:1017100040207C1C2040201C3C4030403C44281091
:1017200028440C5050503C4464544C44000836410A
:101730000000007F000000413608004E6F6B6961B9
:1017400020333331300044485432320048756D64E0
:101750003A2025732563004572726F720054656DDF
:0A176000703A202573C2B043000068
:00000001FF
