:100000000C94DE000C94FB000C94FB000C94FB00A1
:100010000C94FB000C94FB000C94FB000C94FB0074
:100020000C94FB000C94FB000C94FB000C94FB0064
:100030000C94FB000C94FB000C94FB000C94FB0054
:100040000C94D7020C94FB000C94FB000C94FB0066
:100050000C94FB000C94FB000C94FB000C94FB0034
:100060000C94FB000C94FB0000407A10F35A00A0A3
:10007000724E18090010A5D4E80000E87648170071
:1000800000E40B54020000CA9A3B000000E1F505B1
:10009000000080969800000040420F000000A086FB
:1000A00001000000102700000000E803000000002D
:1000B0006400000000000A000000000001000000D1
:1000C00000002C76D888DC674F0823DFC1DFAE59EB
:1000D000E1B1B796E5E3E453C63AE651997696E87E
:1000E000E6C28426EB898C9B62ED407C6FFCEFBC02
:1000F0009C9F40F2BAA56FA5F490055A2AF75C932D
:100100006B6CF9676DC11BFCE0E40D47FEF520E662
:10011000B500D0ED902E0300943577050080841E45
:10012000080000204E0A000000C80C333333330FA0
:10013000986E12831141EF8D2114893BE65516CF3D
:10014000FEE6DB18D1844B381BF77C1D901DA4BB49
:10015000E424203284725E228100C9F124ECA1E5FE
:100160003D270000000023002600290000000000B9
:10017000240027002A0000000000250028002B0092
:10018000040404040404040402020202020203033D
:100190000303030301020408102040800102040845
:1001A00010200102040810200000000800020100D5
:1001B00000030407000000000000000011241FBE1F
:1001C000CFEFD8E0DEBFCDBF11E0A0E0B1E0ECE7BB
:1001D000F4E102C005900D92AA31B107D9F721E0F0
:1001E000AAE1B1E001C01D92A933B207E1F70E9474
:1001F00021030C943C0A0C940000833081F028F415
:10020000813099F08230A9F008958730A9F08830C4
:10021000C9F08430B1F4809180008F7D03C080915B
:1002200080008F7780938000089584B58F7784BD98
:10023000089584B58F7DFBCF8091B0008F77809338
:10024000B00008958091B0008F7DF9CF1F93CF93B8
:10025000DF93282F30E0F901E855FE4F8491F90132
:10026000EC56FE4FD491F901E058FE4FC491CC23D7
:10027000A9F0162F81110E94FD00EC2FF0E0EE0F87
:10028000FF1FEA58FE4FA591B4918FB7F894EC91F7
:10029000111108C0D095DE23DC938FBFDF91CF9181
:1002A0001F910895DE2BF8CFCF93DF9390E0FC01F0
:1002B000EC56FE4F249180589E4FFC018491882378
:1002C000D1F090E0880F991FFC01E459FE4FA591F1
:1002D000B491FC01EA58FE4FC591D49161110EC052
:1002E0009FB7F8948C91E22FE0958E238C93288110
:1002F000E223E8839FBFDF91CF9108958FB7F894F1
:10030000EC91E22BEC938FBFF6CF3FB7F89480913E
:10031000350190913601A0913701B091380126B591
:10032000A89B05C02F3F19F00196A11DB11D3FBF2D
:10033000BA2FA92F982F8827BC01CD01620F711DFC
:10034000811D911D42E0660F771F881F991F4A95F6
:10035000D1F7089561E0682788E00E94540161E0C8
:1003600089E00E94260160E089E00E94260160E0A9
:1003700088E00C9454018F929F92AF92BF92CF92DB
:10038000DF92EF92FF920F931F93CF93DF93982EFC
:10039000C7E0D0E0B12C00EB11E09CE9E92E91E040
:1003A000F92E28E8C22E21E0D22E61E089E00E94D9
:1003B0002601F8018491F701A490F6018490882029
:1003C00071F181110E94FD00E82DF0E0EE0FFF1F9A
:1003D000EE59FE4FA591B4918C91A82231E009F419
:1003E00030E0832F0C2E01C0880F0A94EAF7B80E74
:1003F00060E089E00E9426012197B8F6892D0E94CD
:10040000AA018B2DDF91CF911F910F91FF90EF905B
:10041000DF90CF90BF90AF909F908F90089580E035
:10042000E1CF0F931F93CF93DF93D0E0C0E0082F6D
:1004300010E0B8010C2E02C0660F771F0A94E2F795
:10044000660F672F661F770B719581E068276170D3
:1004500088E00E94540161E089E00E94260160E08A
:1004600089E00E9426012196C830D10511F780E06D
:100470000E94AA0188E0DF91CF911F910F9108950A
:1004800060E089E00E94260161E088E00E9454015A
:1004900061E089E00E94260160E088E00C9454014C
:1004A00061E088E00E94540160E089E00C9426013C
:1004B000CF93C82F0E94500280911B010E9411020D
:1004C0008C2F0E941102CF910C9440028F929F9228
:1004D000AF92BF92CF92DF92EF92FF92CF93C091F3
:1004E0001A01C82B8C2F84600E9458020E9485013B
:1004F0004B015C0185E0C82ED12CE12CF12C0E942F
:100500008501681979098A099B09683E734081054C
:100510009105A8F321E0C21AD108E108F10888EE9C
:10052000880E83E0981EA11CB11CC114D104E10403
:10053000F10429F78C2F8B7FCF91FF90EF90DF9004
:10054000CF90BF90AF909F908F900C945802CF9314
:10055000C82F807F0E9466028C2F8295807FCF916A
:100560000C9466020F931F93CF93DF938A01E82FB9
:10057000880FFF0BE050FF4F808110921A01860F09
:100580000E94A702E80111E08991882359F0803B7D
:1005900039F0823CC9F310931A010E94A702F4CFEC
:1005A0008FEDF9CFDF91CF911F910F9108951F9299
:1005B0000F920FB60F9211242F933F938F939F9317
:1005C000AF93BF938091310190913201A09133019B
:1005D000B09134013091300123E0230F2D3758F5CD
:1005E0000196A11DB11D209330018093310190939C
:1005F0003201A0933301B093340180913501909181
:100600003601A0913701B09138010196A11DB11DAD
:100610008093350190933601A0933701B093380150
:10062000BF91AF919F918F913F912F910F900FBEEE
:100630000F901F90189526E8230F0296A11DB11D5B
:10064000D2CF789484B5826084BD84B5816084BD46
:1006500085B5826085BD85B5816085BD80916E0060
:10066000816080936E001092810080918100826091
:1006700080938100809181008160809381008091CE
:1006800080008160809380008091B10084608093BD
:10069000B1008091B00081608093B00080917A00B9
:1006A000846080937A0080917A00826080937A00DF
:1006B00080917A00816080937A0080917A008068CE
:1006C00080937A001092C10061E089E00E94540199
:1006D00060E088E00E94540161E089E00E94260108
:1006E0008EE480931B0180E00E94580210921A0150
:1006F00082E00E94A70288E20E94A7028CE00E948A
:10070000A70281E00E94A7020E94500280E90E9495
:10071000110283E00E94110283E20E94110280E82C
:100720000E9411020E9440020E94500280E90E9431
:10073000110282E00E9411028EE10E94110280E803
:100740000E9411020E94400244E051E065E080E016
:100750000E94B202CCE0D1E04CE1E42E41E0F42E64
:1007600050E0C52E50E0D52E0E94500280E90E9434
:10077000110280E00E94110260E088E00E945401B2
:1007800061E089E00E94260161E088E00E94540156
:1007900060E089E00E94260181E90E94110280E068
:1007A0000E94BB01182F81E00E94BB01082F0E940C
:1007B0004002812F90E0982F8827080F192F111DD4
:1007C000612F772767FD7A95072E000C880B990B10
:1007D0000E940F0707FF06C020E030E040E05FE323
:1007E0000E94A10606E211E021E047E00E94140405
:1007F000C8019F930F93DF93CF93FF92EF920E94D4
:100800009B074CE151E060E081E00E94B2020F9052
:100810000F900F900F900F900F90C114D10409F416
:10082000A3CF0E940000A0CFEF920F931F93CF930E
:10083000DF93E80134E047FD34E1042E000C550B52
:1008400057FF03C0519541955109E32E022F242FE4
:10085000AE010E943204CE01DF91CF911F910F9122
:10086000EF900895A9E0B0E0E8E3F4E00C946F069F
:100870006A01F22EB02E102FFBE3AF2EA01608F463
:100880001BE31F5F012F27E0AE014F5F5F4F0E9408
:100890009105BC018981982F9970913009F43FC06E
:1008A0009BE2E1FC04C09E2D9170E0FC3AC05E2DFD
:1008B0005071E82FE87083FF46C084E0911101C0B9
:1008C00083E0EF2DE81B8F1508F0E0E0D6018E2FB6
:1008D00020E2552351F1992329F0D6019C93C601BA
:1008E00001966C0196012D5F3F4FE2FE24C08EE41D
:1008F000D6018C9391E411969C93119712968C9348
:10090000D9018E2F90E281111BC0E20FF32FF11D50
:1009100010828EEF9FEF2996ECE00C948B069DE2FF
:10092000C6CF90E2C4CF2D9381508111FCCFCE0E63
:10093000D11CE0E0D0CF8EE6D6018C9391E6DBCFE0
:100940009D938150E0CF482F447082FF3DC084E0EA
:10095000911101C083E08F1510F4EF2DE81BD60133
:100960008E2F20E2552309F1992329F0D6019C937B
:10097000C60101966C0196012D5F3F4FE2FE1BC040
:1009800089E4D6018C938EE411968C93119786E4BA
:1009900012968C93D9018E2F90E2882309F4B5CF5B
:1009A0009D938150FACF2D9381508111FCCFCE0EB3
:1009B000D11CE0E0D9CF89E6D6018C938EE6119662
:1009C0008C93119786E6E4CF9B0177FF02C030E05D
:1009D00020E0A1E0B0E0911102C0B0E0A0E0F90198
:1009E0003196AE0FBF1F8B2C912CBB2009F461C038
:1009F0005401EFEFAE1ABE0AAA0DBB1DFA161B0674
:100A000019F014F04F2D4A1B511188C0E3FC59C056
:100A10007601A42FB0E2A1114FC0C40ED11C9923BE
:100A200009F45BC040E0D6011196F60190836D0198
:100A3000552309F448C0012F060F9A81582F507191
:100A400084FF03C0913309F4015010160CF047C025
:100A5000093008F008E0EEE2FE2E5B01A01AB108B2
:100A600085019194819491082F3F320729F4D60192
:100A7000FC92F60131966F016217730794F1021729
:100A800013077CF5DB01A21BB30BAA24A394B12CA2
:100A9000AC0EBD1EAA0DBB1D11968C9121503109C3
:100AA000D601119628153905F4F0F60180836D0101
:100AB000DBCFB12CA12CA0CFF701B1937F01A150C6
:100AC000AACF9111B0CFD601942F50E302C05D930D
:100AD00091509111FCCFC40ED11C40E0ACCF01E08D
:100AE000BACF80E3DBCF6217730731F4963388F413
:100AF000953311F4552369F0F6018083FD01842FAD
:100B000090E2811108C0A40FB11D1C9290E080E01A
:100B100002CF81E3F1CF91938150F3CF911183CF35
:100B20008ACF283008F027E03327DA01990F311DEA
:100B300087FD916000966105710539F432602E5F82
:100B40003D9330E32A95E1F708959F3F30F08038D8
:100B50007105610509F03C5F3C5F3D93913008F001
:100B60008068911DDF93CF931F930F93FF92EF92B5
:100B7000192F987F9695E92F96959695E90FFF275F
:100B8000EE53FF4F99273327EE24FF24A701E701F7
:100B900005900894079428F4360FE71EF81E491FA5
:100BA000511D660F771F881F991F0694A1F70590A6
:100BB000079428F4E70EF81E491F561FC11D770F32
:100BC000881F991F661F0694A1F70590079428F4C3
:100BD000F80E491F561FC71FD11D880F991F661F8A
:100BE000771F0694A1F70590079420F4490F561F2C
:100BF000C71FD81F990F661F771F881F0694A9F774
:100C000084911095177041F0D695C79557954795E3
:100C1000F794E7941A95C1F7E8E6F0E06894159028
:100C2000159135916591959105907FE27395E11845
:100C3000F10A430B560BC90BD009C0F7E10CF11EAA
:100C4000431F561FC91FD01D7EF4703311F48A95BF
:100C5000E6CFE894015030F0080F0AF4002702179D
:100C600008F4202F2395022F7A3328F079E37D931F
:100C70002A95E9F710C07D932A9589F606949795F1
:100C80006795379517951794E118F10A430B560BA2
:100C9000C90BD00998F023957E9173957A3308F0AB
:100CA00070E37C932013B8F77E9170617D9330F0F0
:100CB000839571E37D9370E32A95E1F71124EF901A
:100CC000FF900F911F91CF91DF91992787FD90950C
:100CD00008952F923F924F925F926F927F928F92E0
:100CE0009F92AF92BF92CF92DF92EF92FF920F93BB
:100CF0001F93CF93DF93CDB7DEB7CA1BDB0B0FB6C5
:100D0000F894DEBF0FBECDBF09942A883988488881
:100D10005F846E847D848C849B84AA84B984C88417
:100D2000DF80EE80FD800C811B81AA81B981CE0F0E
:100D3000D11D0FB6F894DEBF0FBECDBFED010895F3
:100D40005058BB27AA270E94B8060C9461070E943E
:100D5000530738F00E945A0720F039F49F3F19F4E6
:100D600026F40C9450070EF4E095E7FB0C944A0728
:100D7000E92F0E94720758F3BA17620773078407B6
:100D8000950720F079F4A6F50C9494070EF4E095FD
:100D90000B2EBA2FA02D0B01B90190010C01CA0135
:100DA000A0011124FF27591B99F0593F50F4503EE0
:100DB00068F11A16F040A22F232F342F4427585FD2
:100DC000F3CF469537952795A795F0405395C9F7EA
:100DD0007EF41F16BA0B620B730B840BBAF09150A2
:100DE000A1F0FF0FBB1F661F771F881FC2F70EC041
:100DF000BA0F621F731F841F48F487957795679514
:100E0000B795F7959E3F08F0B0CF9395880F08F0FF
:100E10009927EE0F979587950895E89409C097FB59
:100E20003EF490958095709561957F4F8F4F9F4FC1
:100E30009923A9F0F92F96E9BB279395F695879505
:100E400077956795B795F111F8CFFAF4BB0F11F4C8
:100E500060FF1BC06F5F7F4F8F4F9F4F16C088236F
:100E600011F096E911C0772321F09EE8872F762FA5
:100E700005C0662371F096E8862F70E060E02AF0E6
:100E80009A95660F771F881FDAF7880F96958795D2
:100E900097F9089597F99F6780E870E060E00895FA
:100EA0009FEF80EC089500240A9416161706180682
:100EB0000906089500240A9412161306140605065E
:100EC0000895092E0394000C11F4882352F0BB0FEF
:100ED00040F4BF2B11F460FF04C06F5F7F4F8F4F52
:100EE0009F4F089557FD9058440F551F59F05F3F8D
:100EF00071F04795880F97FB991F61F09F3F79F03C
:100F000087950895121613061406551FF2CF4695BD
:100F1000F1DF08C0161617061806991FF1CF86953F
:100F20007105610508940895E894BB276627772723
:100F3000CB0197F90895AEE0B0E0E1EAF7E00C9458
:100F400077060D891E8986E08C831A8309838FEFCB
:100F50009FE79E838D83AE01475E5F4F6F89788DDB
:100F6000CE0101960E94BE072F813885020F131F04
:100F7000F80110822E96E4E00C949306ABE0B0E00A
:100F8000E4ECF7E00C9469067C013B018A01FC016A
:100F900017821682838181FFC8C1CE0101965C0150
:100FA000F7019381F30193FD859193FF81913F01B7
:100FB000882309F453C1853239F493FD859193FF59
:100FC00081913F01853229F4B70190E00E94AE097A
:100FD000E7CF912C212C312CFFE1F31538F08B3227
:100FE00011F190F4803209F1833229F137FC3CC0D1
:100FF00020ED280F2A3050F536FE20C08AE0989E5A
:10100000200D1124922E06C08D3291F0803371F79D
:10101000689430F8F30193FD859193FF81913F012E
:101020008111DACF21C0689431F8689432F8F2CF98
:10103000689433F8EFCF689434F8ECCFEAE02E9E52
:10104000200D1124222E689435F8E4CF8E3229F435
:1010500036FC04C1689436F8DDCF8C3619F46894F8
:1010600037F8D8CF8836B1F2982F9F7D95549330BA
:10107000E0F08336A1F18337C1F1833509F063C015
:101080002801F2E04F0E511CF801C080D180692D7B
:1010900070E036FC02C06FEF7FEFC6010E94980936
:1010A0004C01689437F882010AC00C5F1F4FFFE3C0
:1010B000F98388248394912C6501E89437F833FEF2
:1010C0002DC0522C8114910471F5552009F468CF7C
:1010D000B70180E290E00E94AE095A94F6CFF80181
:1010E000808189830E5F1F4FE4CF2801F2E04F0E0D
:1010F000511CF801C080D180692D70E036FC02C01F
:101100006FEF7FEFC6010E94A3094C018201D5CF8A
:10111000B70180E290E00E94AE092A9428141904D5
:1011200009F0B0F7CECFF60137FC859137FE8191FB
:101130006F01B70190E00E94AE0951105A94F1E09E
:101140008F1A9108BFCF843619F0893609F077C01D
:10115000F80137FE6BC060817181828193810C5FE1
:101160001F4FF32DFF763F2E97FF09C09095809576
:10117000709561957F4F8F4F9F4F689437F82AE0A5
:1011800030E0A5010E94DE09C82ECA188C2C432C21
:1011900036FE0CC0E89440F8C91440F434FE05C093
:1011A00032FC03C0F32DFE7E4F2E892C44FE95C0E9
:1011B000FE01EC0DF11D8081803309F087C0242DE4
:1011C000297E422E842D8870582E43FC95C040FE07
:1011D0008FC09C2C821418F42C0C922C981844FE6E
:1011E00091C0B70180E390E00E94AE0942FE09C0C1
:1011F00088E790E041FE02C088E590E0B7010E94D8
:10120000AE09C91408F48AC0CA94D12C9FEFC91A38
:10121000D90ACA0CDB1CF60182916F01B70190E07C
:101220000E94AE09AC14BD04B1F74FCF608171814B
:10123000072E000C880B990B0E5F1F4F92CFD32CFB
:10124000E894D4F82AE030E0853739F1232D297F5E
:10125000D22E8F3601F148F48835A9F0F701868146
:1012600097812B96E2E10C948506803749F0883708
:10127000A9F7D4FE02C06894D2F820E130E00DC096
:101280006894D4F8F6CF34FE03C0822F8660D82E3F
:1012900020E132E002C028E030E0F801D7FE0FC0C4
:1012A00060817181828193810C5F1F4FA5010E9433
:1012B000DE09C82ECA183D2CE89437F867CF608144
:1012C000718190E080E00E5F1F4FF0CF42FC02C0C2
:1012D000839478CF8394839475CF842D867809F492
:1012E00071CFF6CFB70180E290E00E94AE098394FF
:1012F0008214C0F3512C73CF522C5818821408F466
:101300006ECFF8CF842D867809F47BCF8BE241FE37
:1013100080E247FC8DE2B70190E071CFB70180E336
:1013200090E00E94AE099A946CCF8FEF9FEF99CF17
:10133000FC010590615070400110D8F780959095A0
:101340008E0F9F1F0895FC016150704001900110A5
:10135000D8F7809590958E0F9F1F08950F931F9338
:10136000CF93DF93182F092FEB018B8181FD09C0EB
:101370001FEF0FEF812F902FDF91CF911F910F91D2
:10138000089582FF14C02E813F818C819D81281792
:1013900039073CF4E881F981CF010196998388836C
:1013A00010838E819F8101969F838E83E3CFE88592
:1013B000F985812F0995892BA1F3DACFFA01AA27A4
:1013C000283051F1203181F1E8946F936E7F6E5F88
:1013D0007F4F8F4F9F4FAF4FB1E03ED0B4E03CD036
:1013E000670F781F891F9A1FA11D680F791F8A1F19
:1013F000911DA11D6A0F711D811D911DA11D20D080
:1014000009F468943F912AE0269F11243019305D39
:101410003193DEF6CF010895462F4770405D41932A
:10142000B3E00FD0C9F7F6CF462F4F70405D4A3377
:1014300018F0495D31FD4052419302D0A9F7EACF3F
:10144000B4E0A6959795879577956795BA95C9F76E
:1014500000976105710508959B01AC010A2E069461
:101460005795479537952795BA95C9F7620F731F1A
:0C147000841F951FA01D0895F894FFCF65
:10147C0080C094D4504346383537340054656D7071
:0A148C00723A202573C2B04300003D
:00000001FF
