:100000000C9462000C948A000C948A000C948A0070
:100010000C948A000C948A000C948A000C948A0038
:100020000C948A000C948A000C948A000C948A0028
:100030000C948A000C948A000C948A000C948A0018
:100040000C948F020C948A000C94FF020C94D90239
:100050000C948A000C948A000C948A000C948A00F8
:100060000C948A000C948A000000000024002700F1
:100070002A0000000000250028002B0000000000DE
:1000800023002600290004040404040404040202DA
:100090000202020203030303030301020408102007
:1000A0004080010204081020010204081020000012
:1000B0000008000201000003040700000000000027
:1000C0000000BF0411241FBECFEFD8E0DEBFCDBFBC
:1000D00011E0A0E0B1E0ECE2FAE002C005900D9280
:1000E000A232B107D9F721E0A2E2B1E001C01D922E
:1000F000AF3CB207E1F710E0C2E6D0E004C02197C0
:10010000FE010E940E05C136D107C9F70E943103D6
:100110000C9414050C940000833081F028F4813095
:1001200099F08230A9F008958730A9F08830C9F09D
:100130008430B1F4809180008F7D03C08091800075
:100140008F7780938000089584B58F7784BD08955C
:1001500084B58F7DFBCF8091B0008F778093B00006
:1001600008958091B0008F7DF9CFCF93DF93282F32
:1001700030E0F901E255FF4F8491F901E656FF4F57
:10018000D491F901EA57FF4FC491CC23A1F081111A
:100190000E948C00EC2FF0E0EE0FFF1FE458FF4FA1
:1001A000A591B491EC91ED2381E090E009F480E019
:1001B000DF91CF91089580E090E0FACF1F93CF9325
:1001C000DF93282F30E0F901E255FF4F8491F901C8
:1001D000E656FF4FD491F901EA57FF4FC491CC2363
:1001E000A9F0162F81110E948C00EC2FF0E0EE0F89
:1001F000FF1FEE58FF4FA591B4918FB7F894EC9183
:10020000111108C0D095DE23DC938FBFDF91CF9111
:100210001F910895DE2BF8CF3FB7F89480912E01FF
:1002200090912F01A0913001B091310126B5A89B8A
:1002300005C02F3F19F00196A11DB11D3FBFBA2F78
:10024000A92F982F8827BC01CD01620F711D811D38
:10025000911D42E0660F771F881F991F4A95D1F7BD
:100260000895AF92BF92CF92DF92EF92FF920F93D9
:100270001F93CF93DF936C017B018B01040F151F3C
:10028000EB015E01AE18BF08C017D10759F06991A4
:10029000D601ED91FC910190F081E02DC601099508
:1002A000892B79F7C501DF91CF911F910F91FF90B5
:1002B000EF90DF90CF90BF90AF900895FC01538DE9
:1002C000448D252F30E0842F90E0821B930B541730
:1002D00010F0CF96089501970895FC01918D828DBD
:1002E000981761F0A28DAE0FBF2FB11D5D968C9156
:1002F000928D9F5F9F73928F90E008958FEF9FEF95
:100300000895FC01918D828D981731F0828DE80F50
:10031000F11D858D90E008958FEF9FEF0895FC010A
:10032000918D228D892F90E0805C9F4F821B9109D7
:100330008F739927089582E391E00E948F0121E055
:10034000892B09F420E0822F089580E090E0892B2A
:1003500029F00E949B0181110C9400000895FC017A
:10036000A48DA80FB92FB11DA35ABF4F2C91848D16
:1003700090E001968F739927848FA689B7892C9373
:10038000A089B1898C91837080648C93938D848DC6
:10039000981306C00288F389E02D80818F7D8083C9
:1003A0000895EF92FF920F931F93CF93DF93EC0189
:1003B00081E0888F9B8D8C8D98131AC0E889F9890C
:1003C000808185FF15C09FB7F894EE89FF8960830F
:1003D000E889F98980818370806480839FBF81E090
:1003E00090E0DF91CF911F910F91FF90EF900895D2
:1003F000F62E0B8D10E00F5F1F4F0F731127E02EAD
:100400008C8D8E110CC00FB607FCFACFE889F989E4
:10041000808185FFF5CFCE010E94AF01F1CFEB8D3A
:10042000EC0FFD2FF11DE35AFF4FF0829FB7F894B8
:100430000B8FEA89FB8980818062CFCFCF93DF93D6
:10044000EC01888D8823B9F0AA89BB89E889F989EC
:100450008C9185FD03C0808186FD0DC00FB607FC21
:10046000F7CF8C9185FFF2CF808185FFEDCFCE0154
:100470000E94AF01E9CFDF91CF910895FC01019077
:100480000020E9F73197AF01481B590BBC0182E30B
:1004900091E00C9431018F929F92AF92BF920F9393
:1004A0001F93CF93DF93CDB7DEB7A1970FB6F89424
:1004B000DEBF0FBECDBF19A2423008F44AE08E0164
:1004C0000F5D1F4F842E912CB12CA12CA5019401FE
:1004D0000E94EC04E62FB901CA01EA30F4F4E05DB1
:1004E000D801EE938D01232B242B252B79F790E057
:1004F00080E0109719F0CD010E943E02A1960FB640
:10050000F894DEBF0FBECDBFDF91CF911F910F9149
:10051000BF90AF909F908F900895E95CE1CF1F92BC
:100520000F920FB60F9211242F933F938F939F93A7
:10053000AF93BF9380912A0190912B01A0912C0140
:10054000B0912D013091290123E0230F2D3758F56B
:100550000196A11DB11D2093290180932A0190933A
:100560002B01A0932C01B0932D0180912E0190912D
:100570002F01A0913001B09131010196A11DB11D53
:1005800080932E0190932F01A0933001B0933101FD
:10059000BF91AF919F918F913F912F910F900FBE7F
:1005A0000F901F90189526E8230F0296A11DB11DEC
:1005B000D2CF1F920F920FB60F9211242F933F9319
:1005C0004F935F936F937F938F939F93AF93BF935B
:1005D000EF93FF9382E391E00E94AF01FF91EF91CF
:1005E000BF91AF919F918F917F916F915F914F914B
:1005F0003F912F910F900FBE0F901F9018951F9253
:100600000F920FB60F9211242F938F939F93EF9316
:10061000FF93E0914201F09143018081E091480114
:10062000F091490182FD1BC0908180914B018F5F49
:100630008F7320914C01821741F0E0914B01F0E063
:10064000EE5CFE4F958F80934B01FF91EF919F9150
:100650008F912F910F900FBE0F901F901895808152
:10066000F4CF789484B5826084BD84B5816084BD04
:1006700085B5826085BD85B5816085BD80916E0040
:10068000816080936E001092810080918100826071
:1006900080938100809181008160809381008091AE
:1006A00080008160809380008091B100846080939D
:1006B000B1008091B00081608093B00080917A0099
:1006C000846080937A0080917A00826080937A00BF
:1006D00080917A00816080937A0080917A008068AE
:1006E00080937A001092C100E0914201F0914301A1
:1006F00082E08083E0913E01F0913F011082E09121
:100700004001F09141018FEC808310924A01E09109
:100710004601F091470186E08083E0914401F09129
:100720004501808180618083E0914401F091450121
:10073000808188608083E0914401F091450180814F
:1007400080688083E0914401F091450180818F7D34
:100750008083F2EA8F2EF0E09F2EA9E22A2EA1E0FC
:100760003A2EB0E0AB2EB0E0BB2EF4012491EEE8BF
:10077000F0E08491882399F090E0880F991FFC01A4
:10078000E859FF4FA591B491FC01EE58FF4F8591B8
:1007900094918FB7F8949C91292B2C938FBF60E094
:1007A00088E00E94DE000E940C016B017C0174E174
:1007B000472E512C612C712C0E940C016C197D0963
:1007C0008E099F09683E734081059105A8F3F1E009
:1007D0004F1A51086108710828EEC20E23E0D21E9C
:1007E000E11CF11C411451046104710429F761E01A
:1007F00088E00E94DE00F4012491EEE8F0E08491AC
:100800008823C1F090E0880F991FFC01E859FF4F41
:10081000A591B491FC01EE58FF4FC591D4913FB71B
:10082000F8949C91822F809598239C93988189239A
:1008300088833FBF88E00E94B5000197D9F388E024
:100840000E94B500892BD9F388E00E94B50001977A
:10085000D9F304E211E0C7E0D0E0712C88E00E94F7
:10086000B500892BD9F383E790E00197F1F788E091
:100870000E94B5008130910531F40C2E01C0880F23
:100880000A94EAF7780E88E00E94B5000197D9F340
:10089000219720F7F80171928F012E163F06D9F6A5
:1008A0005091240190912501352F390F4091260157
:1008B000340F80912701380F2091280132134BC04B
:1008C000292F30E0322F2227250F311D90E0982F5D
:1008D0008827840F911D9093230180932201290181
:1008E000032E000C660877084AE0C301B20137FF07
:1008F0000DC06DE282E391E00E94D1016627772767
:10090000CB0164197509860997094AE00E944B02D8
:100910008BE191E00E943E02409022015090230121
:10092000052C000C660877084AE0C301B20177FE87
:100930000DC06DE282E391E00E94D1016627772726
:10094000CB0164197509860997094AE00E944B0298
:100950008FE191E002C082E191E00E943E0288E1D5
:1009600091E00E943E02A114B10409F4FECE0E945F
:100970009B01882309F4F9CE0E940000F6CEE2E341
:10098000F1E01382128288EE93E0A0E0B0E084836D
:100990009583A683B78384E091E09183808385EC7F
:1009A00090E09587848784EC90E09787868780EC39
:1009B00090E0918B808B81EC90E0938B828B82EC2A
:1009C00090E0958B848B86EC90E0978B868B118ED4
:1009D000128E138E148E0895A1E21A2EAA1BBB1B31
:1009E000FD010DC0AA1FBB1FEE1FFF1FA217B307FB
:1009F000E407F50720F0A21BB30BE40BF50B661F11
:100A0000771F881F991F1A9469F7609570958095D4
:100A100090959B01AC01BD01CF010895EE0FFF1F22
:0C0A20000590F491E02D0994F894FFCFAC
:100A2C0000000000D10131015E011E028F016D0139
:100A3C0081014572726F72000D0A00252C20004353
:020A4C000000A8
:00000001FF
