:100000000C94DE000C94FB000C94FB000C94FB00A1
:100010000C94FB000C94FB000C94FB000C94FB0074
:100020000C94FB000C94FB000C94FB000C94FB0064
:100030000C94FB000C94FB000C94FB000C94FB0054
:100040000C9440020C94FB000C94FB000C94FB00FD
:100050000C94FB000C94FB000C94FB000C94FB0034
:100060000C94FB000C94FB0000407A10F35A00A0A3
:10007000724E18090010A5D4E80000E87648170071
:1000800000E40B54020000CA9A3B000000E1F505B1
:10009000000080969800000040420F000000A086FB
:1000A00001000000102700000000E803000000002D
:1000B0006400000000000A000000000001000000D1
:1000C00000002C76D888DC674F0823DFC1DFAE59EB
:1000D000E1B1B796E5E3E453C63AE651997696E87E
:1000E000E6C28426EB898C9B62ED407C6FFCEFBC02
:1000F0009C9F40F2BAA56FA5F490055A2AF75C932D
:100100006B6CF9676DC11BFCE0E40D47FEF520E662
:10011000B500D0ED902E0300943577050080841E45
:10012000080000204E0A000000C80C333333330FA0
:10013000986E12831141EF8D2114893BE65516CF3D
:10014000FEE6DB18D1844B381BF77C1D901DA4BB49
:10015000E424203284725E228100C9F124ECA1E5FE
:100160003D270000000023002600290000000000B9
:10017000240027002A0000000000250028002B0092
:10018000040404040404040402020202020203033D
:100190000303030301020408102040800102040845
:1001A00010200102040810200000000800020100D5
:1001B00000030407000000000000000011241FBE1F
:1001C000CFEFD8E0DEBFCDBF12E0A0E0B1E0E0E6C7
:1001D000FFE002C005900D92A63DB107D9F722E0DD
:1001E000A6EDB2E001C01D92A93EB207E1F70E9460
:1001F0008A020C94AE070C940000833081F028F43E
:10020000813099F08230A9F008958730A9F08830C4
:10021000C9F08430B1F4809180008F7D03C080915B
:1002200080008F7780938000089584B58F7784BD98
:10023000089584B58F7DFBCF8091B0008F77809338
:10024000B00008958091B0008F7DF9CF1F93CF93B8
:10025000DF93282F30E0F901E855FE4F8491F90132
:10026000EC56FE4FD491F901E058FE4FC491CC23D7
:10027000A9F0162F81110E94FD00EC2FF0E0EE0F87
:10028000FF1FEA58FE4FA591B4918FB7F894EC91F7
:10029000111108C0D095DE23DC938FBFDF91CF9181
:1002A0001F910895DE2BF8CFCF93DF9390E0FC01F0
:1002B000EC56FE4F249180589E4FFC018491882378
:1002C000D1F090E0880F991FFC01E459FE4FA591F1
:1002D000B491FC01EA58FE4FC591D49161110EC052
:1002E0009FB7F8948C91E22FE0958E238C93288110
:1002F000E223E8839FBFDF91CF9108958FB7F894F1
:10030000EC91E22BEC938FBFF6CF3FB7F89480913E
:10031000E5029091E602A091E702B091E80226B5CD
:10032000A89B05C02F3F19F00196A11DB11D3FBF2D
:10033000BA2FA92F982F8827BC01CD01620F711DFC
:10034000811D911D42E0660F771F881F991F4A95F6
:10035000D1F708959F92AF92BF92CF92DF92EF9222
:10036000FF920F931F93CF93DF93C7E0D0E0B12CA0
:1003700003EB11E09FE9E92E91E0F92E2BE8C22E64
:1003800021E0D22E60E08DE00E942601F8018491E8
:10039000F701A490F6019490992051F181110E94E7
:1003A000FD00E92DF0E0EE0FFF1FEE59FE4FA59185
:1003B000B4918C91A82231E009F430E0832F0C2E07
:1003C00001C0880F0A94EAF7B80E61E08DE00E9440
:1003D00026012197B8F68B2DDF91CF911F910F91B8
:1003E000FF90EF90DF90CF90BF90AF909F900895D7
:1003F00080E0E5CF0F931F93CF93DF93D0E0C0E071
:10040000082F10E060E08DE00E942601B8010C2E5C
:1004100002C0660F771F0A94E2F7660F672F661F08
:10042000770B61708CE00E94260161E08DE00E94F4
:1004300026012196C830D10529F7DF91CF911F9170
:100440000F9108951F93CF93DF93182FD62FC42FAA
:1004500060E08AE00E942601812F0E94FA018D2F20
:100460000E94FA01C15028F080E00E94FA0180E069
:10047000F7CF61E08AE0DF91CF911F910C942601C4
:100480001F920F920FB60F9211242F933F938F93C9
:100490009F93AF93BF938091E1029091E202A0916C
:1004A000E302B091E4023091E00223E0230F2D3704
:1004B00058F50196A11DB11D2093E0028093E10241
:1004C0009093E202A093E302B093E4028091E502EC
:1004D0009091E602A091E702B091E8020196A11D79
:1004E000B11D8093E5029093E602A093E702B093DA
:1004F000E802BF91AF919F918F913F912F910F9003
:100500000FBE0F901F90189526E8230F0296A11D8D
:10051000B11DD2CF789484B5826084BD84B58160EA
:1005200084BD85B5826085BD85B5816085BD8091BE
:100530006E00816080936E00109281008091810036
:10054000826080938100809181008160809381002E
:10055000809180008160809380008091B1008460F0
:100560008093B1008091B00081608093B000809151
:100570007A00846080937A0080917A008260809310
:100580007A0080917A00816080937A0080917A006D
:10059000806880937A001092C10061E08AE00E9436
:1005A000540161E08DE00E94540161E08CE00E9402
:1005B000540160E08BE00E945401C4E0C1504C2F14
:1005C00060E089E00E9422024C2F6FE08AE00E94E6
:1005D00022024C2F67E08BE00E9422024C2F61E048
:1005E0008CE00E9422024C2F60E08FE00E942202E9
:1005F000C111E4CF61E089E00E94540160E089E02C
:100600000E94260161E089E00E94260180E80E94A4
:10061000FA0180E10E94FA0160E089E00E9426016F
:100620000E9485016B017C0156E9852E912CA12C3D
:10063000B12C0E9485016C197D098E099F09683EC5
:10064000734081059105A8F321E0821A9108A10861
:10065000B10888EEC80E83E0D81EE11CF11C81149D
:100660009104A104B10429F735E0D32E40E0E42E33
:1006700040E0F42E61E089E00E94260182E00E94C1
:10068000FA010E94AA01D82F0E94AA01C82F60E097
:1006900089E00E9426016D2F70E0762F6627C60F35
:1006A000D72FD11D6D2F772767FD7A95072E000C68
:1006B000880B990B0E94B5064B015C01C07CDD27BD
:1006C0002097C9F086E0D595C7958A95E1F7BE01D8
:1006D000DD0F880B990B0E94B50620E030E040E862
:1006E0005EE30E9441079B01AC01C501B4010E9479
:1006F00047064B015C0106ED12E021E045E0C50133
:10070000B4010E94BA03B12CF801A1908F01AA2074
:1007100051F180EE8A0D8D9D40011124C1E0D0E0A1
:10072000FEE2AF1651F0FE01E80DF91DE150FF4F5A
:100730004B2D60818C2F0E9422022196C630D1055C
:1007400079F72EE2A2120DC0CFEFCB0D4C2F60E651
:1007500087E00E9422024C2F60E688E00E9422027D
:10076000D3CFB394D1CFE114F10409F483CF0E9425
:10077000000080CFEF920F931F93CF93DF93E80198
:1007800034E047FD34E1042E000C550B57FF03C045
:10079000519541955109E32E022F242FAE010E945D
:1007A000D803CE01DF91CF911F910F91EF90089563
:1007B000A9E0B0E0EEEDF3E00C9415066A01F22E2C
:1007C000B02E102FFBE3AF2EA01608F41BE31F5F23
:1007D000012F27E0AE014F5F5F4F0E943705BC013C
:1007E0008981982F9970913009F43FC09BE2E1FC18
:1007F00004C09E2D9170E0FC3AC05E2D5071E82F30
:10080000E87083FF46C084E0911101C083E0EF2DC2
:10081000E81B8F1508F0E0E0D6018E2F20E255236B
:1008200051F1992329F0D6019C93C60101966C01E0
:1008300096012D5F3F4FE2FE24C08EE4D6018C93DB
:1008400091E411969C93119712968C93D9018E2F57
:1008500090E281111BC0E20FF32FF11D10828EEF89
:100860009FEF2996ECE00C9431069DE2C6CF90E212
:10087000C4CF2D9381508111FCCFCE0ED11CE0E06E
:10088000D0CF8EE6D6018C9391E6DBCF9D9381503D
:10089000E0CF482F447082FF3DC084E0911101C039
:1008A00083E08F1510F4EF2DE81BD6018E2F20E288
:1008B000552309F1992329F0D6019C93C60101968D
:1008C0006C0196012D5F3F4FE2FE1BC089E4D6010B
:1008D0008C938EE411968C93119786E412968C93E8
:1008E000D9018E2F90E2882309F4B5CF9D938150D2
:1008F000FACF2D9381508111FCCFCE0ED11CE0E0B8
:10090000D9CF89E6D6018C938EE611968C931197F8
:1009100086E6E4CF9B0177FF02C030E020E0A1E053
:10092000B0E0911102C0B0E0A0E0F9013196AE0F45
:10093000BF1F8B2C912CBB2009F461C05401EFEF39
:10094000AE1ABE0AAA0DBB1DFA161B0619F014F04A
:100950004F2D4A1B511188C0E3FC59C07601A42FCA
:10096000B0E2A1114FC0C40ED11C992309F45BC0A1
:1009700040E0D6011196F60190836D01552309F4EC
:1009800048C0012F060F9A81582F507184FF03C071
:10099000913309F4015010160CF047C0093008F0EB
:1009A00008E0EEE2FE2E5B01A01AB10885019194E9
:1009B000819491082F3F320729F4D601FC92F60169
:1009C00031966F016217730794F1021713077CF5D4
:1009D000DB01A21BB30BAA24A394B12CAC0EBD1E49
:1009E000AA0DBB1D11968C9121503109D60111968B
:1009F00028153905F4F0F60180836D01DBCFB12CA9
:100A0000A12CA0CFF701B1937F01A150AACF9111E2
:100A1000B0CFD601942F50E302C05D939150911155
:100A2000FCCFC40ED11C40E0ACCF01E0BACF80E3D4
:100A3000DBCF6217730731F4963388F4953311F4E2
:100A4000552369F0F6018083FD01842F90E2811126
:100A500008C0A40FB11D1C9290E080E002CF81E39A
:100A6000F1CF91938150F3CF911183CF8ACF28306A
:100A700008F027E03327DA01990F311D87FD9160D7
:100A800000966105710539F432602E5F3D9330E3C5
:100A90002A95E1F708959F3F30F080387105610590
:100AA00009F03C5F3C5F3D93913008F08068911DF8
:100AB000DF93CF931F930F93FF92EF92192F987F9D
:100AC0009695E92F96959695E90FFF27EE53FF4FE0
:100AD00099273327EE24FF24A701E7010590089406
:100AE000079428F4360FE71EF81E491F511D660FA4
:100AF000771F881F991F0694A1F70590079428F483
:100B0000E70EF81E491F561FC11D770F881F991F3A
:100B1000661F0694A1F70590079428F4F80E491F64
:100B2000561FC71FD11D880F991F661F771F069478
:100B3000A1F70590079420F4490F561FC71FD81F2F
:100B4000990F661F771F881F0694A9F78491109547
:100B5000177041F0D695C79557954795F794E79448
:100B60001A95C1F7E8E6F0E0689415901591359173
:100B70006591959105907FE27395E118F10A430B19
:100B8000560BC90BD009C0F7E10CF11E431F561FCD
:100B9000C91FD01D7EF4703311F48A95E6CFE89416
:100BA000015030F0080F0AF40027021708F4202F34
:100BB0002395022F7A3328F079E37D932A95E9F77C
:100BC00010C07D932A9589F6069497956795379579
:100BD00017951794E118F10A430B560BC90BD0096E
:100BE00098F023957E9173957A3308F070E37C93A7
:100BF0002013B8F77E9170617D9330F0839571E397
:100C00007D9370E32A95E1F71124EF90FF900F9107
:100C10001F91CF91DF91992787FD909508952F928D
:100C20003F924F925F926F927F928F929F92AF927C
:100C3000BF92CF92DF92EF92FF920F931F93CF93C9
:100C4000DF93CDB7DEB7CA1BDB0B0FB6F894DEBF60
:100C50000FBECDBF09942A88398848885F846E8486
:100C60007D848C849B84AA84B984C884DF80EE80D0
:100C7000FD800C811B81AA81B981CE0FD11D0FB6D9
:100C8000F894DEBF0FBECDBFED0108955058BB27CD
:100C9000AA270E945E060C9407070E94F90638F006
:100CA0000E94000720F039F49F3F19F426F40C94B9
:100CB000F6060EF4E095E7FB0C94F006E92F0E948F
:100CC000180758F3BA17620773078407950720F0CF
:100CD00079F4A6F50C943A070EF4E0950B2EBA2F92
:100CE000A02D0B01B90190010C01CA01A001112432
:100CF000FF27591B99F0593F50F4503E68F11A16DE
:100D0000F040A22F232F342F4427585FF3CF46956E
:100D100037952795A795F0405395C9F77EF41F1690
:100D2000BA0B620B730B840BBAF09150A1F0FF0F5A
:100D3000BB1F661F771F881FC2F70EC0BA0F621F46
:100D4000731F841F48F4879577956795B795F79536
:100D50009E3F08F0B0CF9395880F08F09927EE0FCB
:100D6000979587950895E89409C097FB3EF4909570
:100D70008095709561957F4F8F4F9F4F9923A9F074
:100D8000F92F96E9BB279395F69587957795679503
:100D9000B795F111F8CFFAF4BB0F11F460FF1BC047
:100DA0006F5F7F4F8F4F9F4F16C0882311F096E9DA
:100DB00011C0772321F09EE8872F762F05C0662388
:100DC00071F096E8862F70E060E02AF09A95660F41
:100DD000771F881FDAF7880F9695879597F90895FA
:100DE00097F99F6780E870E060E008959FEF80ECDE
:100DF000089500240A941616170618060906089581
:100E000000240A9412161306140605060895092EE6
:100E10000394000C11F4882352F0BB0F40F4BF2B55
:100E200011F460FF04C06F5F7F4F8F4F9F4F089595
:100E300057FD9058440F551F59F05F3F71F047958B
:100E4000880F97FB991F61F09F3F79F08795089570
:100E5000121613061406551FF2CF4695F1DF08C08F
:100E6000161617061806991FF1CF869571056105AC
:100E700008940895E894BB2766277727CB0197F954
:100E800008950E9454070C9407070E94F90638F051
:100E90000E94000720F0952311F00C94F0060C94AA
:100EA000F60611240C943B070E94180770F3959FD7
:100EB000C1F3950F50E0551F629FF001729FBB2751
:100EC000F00DB11D639FAA27F00DB11DAA1F649FED
:100ED0006627B00DA11D661F829F2227B00DA11DA0
:100EE000621F739FB00DA11D621F839FA00D611D26
:100EF000221F749F3327A00D611D231F849F600D47
:100F0000211D822F762F6A2F11249F5750409AF06F
:100F1000F1F088234AF0EE0FFF1FBB1F661F771FFB
:100F2000881F91505040A9F79E3F510580F00C94C6
:100F3000F0060C943B075F3FE4F3983ED4F38695AC
:100F400077956795B795F795E7959F5FC1F7FE2B66
:100F5000880F911D9695879597F90895F894FFCF7E
:100F6000000000000000005F000000070007001400
:100F70007F147F14242A7F2A1223130864623649BF
:100F80005522500005030000001C224100004122B0
:100F90001C00082A1C2A0808083E080800503000D7
:100FA000000808080808003030000020100804027B
:100FB0003E5149453E00427F400042615149462131
:100FC00041454B311814127F1027454545393C4A9D
:100FD00049493001710905033649494936064949ED
:100FE000291E003636000000563600000008142284
:100FF000411414141414412214080002015109066A
:10100000324979413E7E1111117E7F494949363E70
:10101000414141227F4141221C7F494949417F0989
:101020000901013E414151327F0808087F00417F9C
:1010300041002040413F017F081422417F40404051
:10104000407F0204027F7F0408107F3E4141413E01
:101050007F090909063E4151215E7F09192946464B
:101060004949493101017F01013F4040403F1F2074
:1010700040201F7F2018207F631408146303047826
:101080000403615149454300007F414102040810B7
:101090002041417F000004020102044040404040E2
:1010A000000102040020545454787F4844443838E6
:1010B00044444420384444487F3854545418087EEB
:1010C000090102081454543C7F0804047800447D4C
:1010D00040002040443D00007F10284400417F40F4
:1010E000007C041804787C080404783844444438AC
:1010F0007C14141408081414187C7C080404084890
:1011000054545420043F4440203C4040207C1C2048
:1011100040201C3C4030403C44281028440C505097
:10112000503C4464544C44000836410000007F00A9
:061130000000413608003A
:00000001FF
