:100000000C9462000C948A000C948A000C948A0070
:100010000C948A000C948A000C948A000C948A0038
:100020000C948A000C948A000C948A000C948A0028
:100030000C948A000C948A000C948A000C948A0018
:100040000C946B030C948A000C94DB030C94B503A2
:100050000C948A000C948A000C948A000C948A00F8
:100060000C948A000C948A000000000024002700F1
:100070002A0000000000250028002B0000000000DE
:1000800023002600290004040404040404040202DA
:100090000202020203030303030301020408102007
:1000A0004080010204081020010204081020000012
:1000B0000008000201000003040700000000000027
:1000C0000000900511241FBECFEFD8E0DEBFCDBFEA
:1000D00011E0A0E0B1E0E6E4F0E102C005900D928D
:1000E000AE32B107D9F721E0AEE2B1E001C01D9216
:1000F000AB3DB207E1F710E0C2E6D0E004C02197C3
:10010000FE010E941B08C136D107C9F70E940D04E9
:100110000C9421080C940000833081F028F4813085
:1001200099F08230A9F008958730A9F08830C9F09D
:100130008430B1F4809180008F7D03C08091800075
:100140008F7780938000089584B58F7784BD08955C
:1001500084B58F7DFBCF8091B0008F778093B00006
:1001600008958091B0008F7DF9CFCF93DF93282F32
:1001700030E0F901E255FF4F8491F901E656FF4F57
:10018000D491F901EA57FF4FC491CC23A1F081111A
:100190000E948C00EC2FF0E0EE0FFF1FE458FF4FA1
:1001A000A591B491EC91ED2381E090E009F480E019
:1001B000DF91CF91089580E090E0FACF1F93CF9325
:1001C000DF93282F30E0F901E255FF4F8491F901C8
:1001D000E656FF4FD491F901EA57FF4FC491CC2363
:1001E000A9F0162F81110E948C00EC2FF0E0EE0F89
:1001F000FF1FEE58FF4FA591B4918FB7F894EC9183
:10020000111108C0D095DE23DC938FBFDF91CF9111
:100210001F910895DE2BF8CF3FB7F89480913A01F3
:1002200090913B01A0913C01B0913D0126B5A89B66
:1002300005C02F3F19F00196A11DB11D3FBFBA2F78
:10024000A92F982F8827BC01CD01620F711D811D38
:10025000911D42E0660F771F881F991F4A95D1F7BD
:100260000895AF92BF92CF92DF92EF92FF920F93D9
:100270001F93CF93DF936C017B018B01040F151F3C
:10028000EB015E01AE18BF08C017D10759F06991A4
:10029000D601ED91FC910190F081E02DC601099508
:1002A000892B79F7C501DF91CF911F910F91FF90B5
:1002B000EF90DF90CF90BF90AF900895FC01538DE9
:1002C000448D252F30E0842F90E0821B930B541730
:1002D00010F0CF96089501970895FC01918D828DBD
:1002E000981761F0A28DAE0FBF2FB11D5D968C9156
:1002F000928D9F5F9F73928F90E008958FEF9FEF95
:100300000895FC01918D828D981731F0828DE80F50
:10031000F11D858D90E008958FEF9FEF0895FC010A
:10032000918D228D892F90E0805C9F4F821B9109D7
:100330008F73992708958EE391E00E948F0121E049
:10034000892B09F420E0822F089580E090E0892B2A
:1003500029F00E949B0181110C9400000895FC017A
:10036000A48DA80FB92FB11DA35ABF4F2C91848D16
:1003700090E001968F739927848FA689B7892C9373
:10038000A089B1898C91837080648C93938D848DC6
:10039000981306C00288F389E02D80818F7D8083C9
:1003A0000895EF92FF920F931F93CF93DF93EC0189
:1003B00081E0888F9B8D8C8D98131AC0E889F9890C
:1003C000808185FF15C09FB7F894EE89FF8960830F
:1003D000E889F98980818370806480839FBF81E090
:1003E00090E0DF91CF911F910F91FF90EF900895D2
:1003F000F62E0B8D10E00F5F1F4F0F731127E02EAD
:100400008C8D8E110CC00FB607FCFACFE889F989E4
:10041000808185FFF5CFCE010E94AF01F1CFEB8D3A
:10042000EC0FFD2FF11DE35AFF4FF0829FB7F894B8
:100430000B8FEA89FB8980818062CFCFCF93DF93D6
:10044000EC01888D8823B9F0AA89BB89E889F989EC
:100450008C9185FD03C0808186FD0DC00FB607FC21
:10046000F7CF8C9185FFF2CF808185FFEDCFCE0154
:100470000E94AF01E9CFDF91CF910895FC01019077
:100480000020E9F73197AF01481B590BBC018EE3FF
:1004900091E00C9431018F929F92AF92BF920F9393
:1004A0001F93CF93DF93CDB7DEB7A1970FB6F89424
:1004B000DEBF0FBECDBF19A2423008F44AE08E0164
:1004C0000F5D1F4F842E912CB12CA12CA5019401FE
:1004D0000E94F907E62FB901CA01EA30F4F4E05DA1
:1004E000D801EE938D01232B242B252B79F790E057
:1004F00080E0109719F0CD010E943E02A1960FB640
:10050000F894DEBF0FBECDBFDF91CF911F910F9149
:10051000BF90AF909F908F900895E95CE1CF4F928C
:100520005F926F927F928F929F92AF92BF92CF9283
:10053000DF92EF92FF920F931F93CF936B017C0199
:10054000742EAC019B010E94F407882399F082E18C
:1005500091E0CF911F910F91FF90EF90DF90CF909E
:10056000BF90AF909F908F907F906F905F904F90D3
:100570000C943E0246015701E894B7F82FEF3FEF85
:100580004FE75FE7C501B4010E94F40781110DC078
:100590002FEF3FEF4FE75FE7C501B4010E942A0646
:1005A00018161CF486E191E0D4CF2FEF3FEF4FE710
:1005B0005FE4C701B6010E94820718161CF48AE1A5
:1005C00091E0C7CF2FEF3FEF4FE75FECC701B601D8
:1005D0000E942A0687FDF3CF20E030E0A901C70181
:1005E000B6010E942A0610E000E087FF0AC06DE213
:1005F0008EE391E00E94D1018C01F7FAF094F7F8B4
:10060000F094C0E060E070E080E09FE37C1641F091
:1006100020E030E040E251E40E942F06CF5FF6CFA9
:10062000A70196010E94BE052B013C010E94A10674
:100630004B015C014AE00E944B027C01E00EF11E7E
:10064000CC23C1F1C501B4010E94D0069B01AC01CD
:10065000C301B2010E94BD054B015C016EE28EE355
:1006600091E00E94D101E80EF91EC15018F120E07E
:1006700030E040E251E4C501B4010E9487072B013C
:100680003C010E94A1064B01B12CA12C4AE0C501FE
:10069000B4010E944B02E80EF91EC501B4010E948C
:1006A000D0069B01AC01C301B2010E94BD054B0104
:1006B0005C01DBCFC701CF911F910F91FF90EF90AD
:1006C000DF90CF90BF90AF909F908F907F906F9072
:1006D0005F904F9008951F920F920FB60F921124C2
:1006E0002F933F938F939F93AF93BF938091360146
:1006F00090913701A0913801B091390130913501C5
:1007000023E0230F2D3758F50196A11DB11D20932D
:1007100035018093360190933701A0933801B0934F
:10072000390180913A0190913B01A0913C01B09137
:100730003D010196A11DB11D80933A0190933B01AB
:10074000A0933C01B0933D01BF91AF919F918F91D8
:100750003F912F910F900FBE0F901F90189526E894
:10076000230F0296A11DB11DD2CF1F920F920FB67B
:100770000F9211242F933F934F935F936F937F9327
:100780008F939F93AF93BF93EF93FF938EE391E08B
:100790000E94AF01FF91EF91BF91AF919F918F9117
:1007A0007F916F915F914F913F912F910F900FBE6D
:1007B0000F901F9018951F920F920FB60F92112451
:1007C0002F938F939F93EF93FF93E0914E01F091BE
:1007D0004F018081E0915401F091550182FD1BC0D1
:1007E0009081809157018F5F8F73209158018217FC
:1007F00041F0E0915701F0E0E25CFE4F958F80936D
:100800005701FF91EF919F918F912F910F900FBE04
:100810000F901F9018958081F4CF789484B58260F2
:1008200084BD84B5816084BD85B5826085BD85B594
:10083000816085BD80916E00816080936E00109212
:10084000810080918100826080938100809181008D
:10085000816080938100809180008160809380001E
:100860008091B10084608093B1008091B00081607C
:100870008093B00080917A00846080937A008091A8
:100880007A00826080937A0080917A008160809300
:100890007A0080917A00806880937A001092C1007B
:1008A000E0914E01F0914F0182E08083E0914A0196
:1008B000F0914B011082E0914C01F0914D018FECD1
:1008C000808310925601E0915201F091530186E02D
:1008D0008083E0915001F09151018081806180839B
:1008E000E0915001F0915101808188608083E09116
:1008F0005001F0915101808180688083E091500126
:10090000F091510180818F7D808362EA862E60E0C4
:10091000962E75E3272E71E0372EE0E0AE2EE0E054
:10092000BE2EF4012491EEE8F0E08491882399F042
:1009300090E0880F991FFC01E859FF4FA591B491F1
:10094000FC01EE58FF4F859194918FB7F8949C91DC
:10095000292B2C938FBF60E088E00E94DE000E946C
:100960000C016B017C0144E1442E512C612C712C53
:100970000E940C016C197D098E099F09683E734025
:1009800081059105A8F3F1E04F1A5108610871083B
:1009900028EEC20E23E0D21EE11CF11C41145104CA
:1009A0006104710429F761E088E00E94DE00F4012F
:1009B0002491EEE8F0E084918823C1F090E0880F64
:1009C000991FFC01E859FF4FA591B491FC01EE5825
:1009D000FF4FC591D4913FB7F8949C91822F809599
:1009E00098239C939881892388833FBF88E00E9445
:1009F000B5000197D9F388E00E94B500892BD9F39F
:100A000088E00E94B5000197D9F300E311E0C7E048
:100A1000D0E0712C88E00E94B500892BD9F383E7E0
:100A200090E00197F1F788E00E94B50081309105D0
:100A300031F40C2E01C0880F0A94EAF7780E88E092
:100A40000E94B5000197D9F3219720F7F801719220
:100A50008F012E163F06D9F6809130016091310149
:100A6000382F360F90913201390F40913301340FF6
:100A70002091340132133BC0292F30E0322F22273E
:100A8000240F311D30932F0120932E0190E0982FD9
:100A90008827680F792F711D072E000C880B990B82
:100AA0000E94D20620E030E040E251E40E942F068E
:100AB00041E00E948F028EE191E00E943E0260912F
:100AC0002E0170912F0177FD26C0072E000C880B98
:100AD000990B0E94D20620E030E040E251E40E94EF
:100AE0002F0641E00E948F028BE291E002C082E279
:100AF00091E00E943E0288E291E00E943E02A11431
:100B0000B10409F40ECF0E949B01882309F409CF98
:100B10000E94000006CF7F77719561957109D5CF4E
:100B2000EEE3F1E01382128288EE93E0A0E0B0E001
:100B300084839583A683B78384E091E09183808347
:100B400085EC90E09587848784EC90E09787868792
:100B500080EC90E0918B808B81EC90E0938B828B8A
:100B600082EC90E0958B848B86EC90E0978B868B63
:100B7000118E128E138E148E08955058BB27AA27FB
:100B80000E94D5050C9448070E943A0738F00E944D
:100B9000410720F039F49F3F19F426F40C943707ED
:100BA0000EF4E095E7FB0C943107E92F0E945907FA
:100BB00058F3BA17620773078407950720F079F492
:100BC000A6F50C947B070EF4E0950B2EBA2FA02D02
:100BD0000B01B90190010C01CA01A0011124FF27EA
:100BE000591B99F0593F50F4503E68F11A16F040E5
:100BF000A22F232F342F4427585FF3CF46953795E4
:100C00002795A795F0405395C9F77EF41F16BA0BA8
:100C1000620B730B840BBAF09150A1F0FF0FBB1F56
:100C2000661F771F881FC2F70EC0BA0F621F731F9F
:100C3000841F48F4879577956795B795F7959E3FFC
:100C400008F0B0CF9395880F08F09927EE0F97958D
:100C5000879508950E940D0708F481E008950E9489
:100C600043060C9448070E94410758F00E943A0737
:100C700040F029F45F3F29F00C94310751110C9496
:100C80007C070C9437070E94590768F39923B1F346
:100C9000552391F3951B550BBB27AA2762177307A2
:100CA000840738F09F5F5F4F220F331F441FAA1F36
:100CB000A9F335D00E2E3AF0E0E832D091505040F2
:100CC000E695001CCAF72BD0FE2F29D0660F771FA0
:100CD000881FBB1F261737074807AB07B0E809F086
:100CE000BB0B802DBF01FF2793585F4F3AF09E3F0B
:100CF000510578F00C9431070C947C075F3FE4F3C6
:100D0000983ED4F3869577956795B795F7959F5F4D
:100D1000C9F7880F911D9695879597F90895E1E099
:100D2000660F771F881FBB1F621773078407BA07F8
:100D300020F0621B730B840BBA0BEE1F88F7E09553
:100D400008950E94610788F09F5798F0B92F99275E
:100D5000B751B0F0E1F0660F771F881F991F1AF0A6
:100D6000BA95C9F714C0B13091F00E947B07B1E089
:100D700008950C947B07672F782F8827B85F39F088
:100D8000B93FCCF3869577956795B395D9F73EF43F
:100D900090958095709561957F4F8F4F9F4F0895E7
:100DA000E89409C097FB3EF4909580957095619505
:100DB0007F4F8F4F9F4F9923A9F0F92F96E9BB27BB
:100DC0009395F695879577956795B795F111F8CF37
:100DD000FAF4BB0F11F460FF1BC06F5F7F4F8F4FA2
:100DE0009F4F16C0882311F096E911C0772321F098
:100DF0009EE8872F762F05C0662371F096E8862F30
:100E000070E060E02AF09A95660F771F881FDAF786
:100E1000880F9695879597F90895990F0008550FB3
:100E2000AA0BE0E8FEEF16161706E807F907C0F070
:100E300012161306E407F50798F0621B730B840B78
:100E4000950B39F40A2661F0232B242B252B21F452
:100E500008950A2609F4A140A6958FEF811D811DF2
:100E6000089597F99F6780E870E060E008959FEF2C
:100E700080EC089500240A94161617061806090631
:100E8000089500240A941216130614060506089500
:100E9000092E0394000C11F4882352F0BB0F40F488
:100EA000BF2B11F460FF04C06F5F7F4F8F4F9F4FC8
:100EB000089557FD9058440F551F59F05F3F71F04A
:100EC0004795880F97FB991F61F09F3F79F08795B1
:100ED0000895121613061406551FF2CF4695F1DF3A
:100EE00008C0161617061806991FF1CF86957105CA
:100EF000610508940895E894BB2766277727CB01FE
:100F000097F908950E940D0708F48FEF08950E9445
:100F10009A070C9448070E943A0738F00E9441074C
:100F200020F0952311F00C9431070C94370711240D
:100F30000C947C070E94590770F3959FC1F3950F9D
:100F400050E0551F629FF001729FBB27F00DB11D4D
:100F5000639FAA27F00DB11DAA1F649F6627B00DDD
:100F6000A11D661F829F2227B00DA11D621F739FC6
:100F7000B00DA11D621F839FA00D611D221F749FD4
:100F80003327A00D611D231F849F600D211D822F1B
:100F9000762F6A2F11249F5750409AF0F1F0882342
:100FA0004AF0EE0FFF1FBB1F661F771F881F91506F
:100FB0005040A9F79E3F510580F00C9431070C94E6
:100FC0007C075F3FE4F3983ED4F386957795679569
:100FD000B795F795E7959F5FC1F7FE2B880F911D99
:100FE0009695879597F908950E940D07880B990BA0
:100FF0000895A1E21A2EAA1BBB1BFD010DC0AA1F5A
:10100000BB1FEE1FFF1FA217B307E407F50720F071
:10101000A21BB30BE40BF50B661F771F881F991FEC
:101020001A9469F760957095809590959B01AC0135
:10103000BD01CF010895EE0FFF1F0590F491E02D43
:061040000994F894FFCFB3
:1010460000000000D10131015E011E028F016D0119
:1010560081016E616E00696E66006F766600252CF2
:0E10660020004572726F72000D0A00430000F8
:00000001FF
