:100000000C94D9000C94F6000C94F6000C94F600B5
:100010000C94F6000C94F6000C94F6000C94F60088
:100020000C94F6000C94F6000C94F6000C94F60078
:100030000C94F6000C94F6000C94F6000C94F60068
:100040000C94E8010C94F6000C94F6000C94F60065
:100050000C94F6000C94F6000C94F6000C94F60048
:100060000C94F6000C94F60000407A10F35A00A0AD
:10007000724E18090010A5D4E80000E87648170071
:1000800000E40B54020000CA9A3B000000E1F505B1
:10009000000080969800000040420F000000A086FB
:1000A00001000000102700000000E803000000002D
:1000B0006400000000000A000000000001000000D1
:1000C00000002C76D888DC674F0823DFC1DFAE59EB
:1000D000E1B1B796E5E3E453C63AE651997696E87E
:1000E000E6C28426EB898C9B62ED407C6FFCEFBC02
:1000F0009C9F40F2BAA56FA5F490055A2AF75C932D
:100100006B6CF9676DC11BFCE0E40D47FEF520E662
:10011000B500D0ED902E0300943577050080841E45
:10012000080000204E0A000000C80C333333330FA0
:10013000986E12831141EF8D2114893BE65516CF3D
:10014000FEE6DB18D1844B381BF77C1D901DA4BB49
:10015000E424203284725E228100C9F124ECA1E5FE
:100160003D2700000000240027002A0000000000B6
:10017000250028002B0004040404040404040202E3
:100180000202020203030303030301020408102016
:100190004080010204081020010204081020000021
:1001A0000008000201000003040700000000000036
:1001B000000011241FBECFEFD8E0DEBFCDBF11E09D
:1001C000A0E0B1E0E0EFF0E102C005900D92AE32A8
:1001D000B107D9F721E0AEE2B1E001C01D92AB3426
:1001E000B207E1F70E9432020C9476080C940000EA
:1001F00090E0FC01E256FE4F2491FC01E657FE4FD1
:100200003491FC01EA58FE4FE491EE23C9F0222319
:1002100039F0233001F1A8F4213019F1223029F10D
:10022000F0E0EE0FFF1FE459FE4FA591B4918FB798
:10023000F894EC91611126C030953E233C938FBF1A
:1002400008952730A9F02830C9F0243049F780916B
:1002500080008F7D03C0809180008F778093800025
:10026000DFCF84B58F7784BDDBCF84B58F7DFBCFA7
:100270008091B0008F778093B000D2CF8091B00092
:100280008F7DF9CF3E2BDACFCF93DF9390E0FC0147
:10029000E657FE4F24918A589E4FFC018491882393
:1002A000D1F090E0880F991FFC01EE59FE4FA59107
:1002B000B491FC01E459FE4FC591D49161110EC077
:1002C0009FB7F8948C91E22FE0958E238C93288130
:1002D000E223E8839FBFDF91CF9108958FB7F89411
:1002E000EC91E22BEC938FBFF6CFEF92FF920F933E
:1002F0001F93CF93DF93D0E0C0E0082F10E083E19D
:10030000E82EF12C60E089E00E94F800B8010C2E84
:1003100002C0759567950A94E2F7609570956170D3
:10032000772788E00E94440161E089E00E94F8009C
:10033000C7010197F1F72196C830D10519F7DF9170
:10034000CF911F910F91FF90EF90089560E089E0A9
:100350000E94F8008FE090E00197F1F761E089E0FA
:100360000E94F80083E090E00197F1F760E089E0F7
:100370000C94F800CF93DF9360E089E00E94F800CE
:10038000C3E0D0E0CE010197F1F761E088E00E9480
:100390004401CE010197F1F761E089E00E94F80085
:1003A0002197F1F760E088E0DF91CF910C94440150
:1003B00061E089E00E94F80060E088E00E9444016A
:1003C00083E090E00197F1F761E088E00C9444014C
:1003D0001F920F920FB60F9211242F933F938F937A
:1003E0009F93AF93BF938091470190914801A09153
:1003F0004901B0914A013091460123E0230F2D3786
:1004000058F50196A11DB11D209346018093470127
:1004100090934801A0934901B0934A018091420111
:1004200090914301A0914401B09145010196A11D15
:10043000B11D8093420190934301A0934401B09376
:100440004501BF91AF919F918F913F912F910F9057
:100450000FBE0F901F90189526E8230F0296A11D3E
:10046000B11DD2CFCF93DF93CDB7DEB766970FB66E
:10047000F894DEBF0FBECDBF789484B5826084BD92
:1004800084B5816084BD85B5826085BD85B5816098
:1004900085BD80916E00816080936E001092810016
:1004A00080918100826080938100809181008160D1
:1004B0008093810080918000816080938000809192
:1004C000B10084608093B1008091B000816080931E
:1004D000B00080917A00846080937A0080917A00E5
:1004E000826080937A0080917A00816080937A00A4
:1004F00080917A00806880937A001092C10061E058
:1005000089E00E94440160E089E00E94F80061E017
:1005100088E00E9444010E94D8018EE80E94750183
:100520000E94A6010E94BA019AE0292ECE010B96E4
:100530009E8B8D8BFF24FA9420E0822E20E0922E59
:1005400008E311E021E044E06AE979E985EE91EC05
:100550000E944103C8019F930F93E8E2F1E0FF93EB
:10056000EF938EE291E09F938F930E94D5050E94B6
:10057000D80180E40E9475010E94A6010E94BA0180
:10058000ED89FE89222D11922A95E9F7F982FA82E6
:10059000FB82FC82FD82FE82FF82F886F986FA8663
:1005A0000F900F900F900F900F900F9080E090E0C1
:1005B000E92FF0E0E25DFE4F2081222361F02E3230
:1005C00041F4FE01E80FF11D2FEF280F20839F5FFC
:1005D000EFCF8F5FFCCF0E94D80180EC0E947501A5
:1005E0000E94A6018EE2A82E81E0B82E412CF501D2
:1005F00001915F010023E1F10E32C9F3023CB9F32E
:10060000642C712CE1E0F0E0EC0FFD1FE60DF71D0E
:10061000508010E0C801C097F801E251FF4F0A97DF
:1006200090F0312CC32CD12CF601E15FFE4FE0801D
:10063000EE2051F0C8010E94CD05E8161906B1F46C
:10064000F601E050FF4FE080FFEF5F1641F0852D8F
:10065000550C990B6816790611F46894E7F88E2DFD
:100660000E9475010E94A6014394C1CF3394DACF52
:100670000E94BA018114910409F462CF0E94000023
:100680005FCFEF920F931F93CF93DF93E80134E096
:1006900047FD34E1042E000C550B57FF03C0519564
:1006A00041955109E32E022F242FAE010E945F03D2
:1006B000CE01DF91CF911F910F91EF900895A9E0A6
:1006C000B0E0E5E6F3E00C949C056A01F22EB02E52
:1006D000102FFBE3AF2EA01608F41BE31F5F012FC2
:1006E00027E0AE014F5F5F4F0E94BE04BC018981CD
:1006F000982F9970913009F43FC09BE2E1FC04C04F
:100700009E2D9170E0FC3AC05E2D5071E82FE8708C
:1007100083FF46C084E0911101C083E0EF2DE81B08
:100720008F1508F0E0E0D6018E2F20E2552351F11D
:10073000992329F0D6019C93C60101966C0196017C
:100740002D5F3F4FE2FE24C08EE4D6018C9391E4EE
:1007500011969C93119712968C93D9018E2F90E24B
:1007600081111BC0E20FF32FF11D10828EEF9FEF5E
:100770002996ECE00C94B8059DE2C6CF90E2C4CF78
:100780002D9381508111FCCFCE0ED11CE0E0D0CF53
:100790008EE6D6018C9391E6DBCF9D938150E0CF1E
:1007A000482F447082FF3DC084E0911101C083E076
:1007B0008F1510F4EF2DE81BD6018E2F20E2552364
:1007C00009F1992329F0D6019C93C60101966C0189
:1007D00096012D5F3F4FE2FE1BC089E4D6018C934A
:1007E0008EE411968C93119786E412968C93D9011E
:1007F0008E2F90E2882309F4B5CF9D938150FACFD4
:100800002D9381508111FCCFCE0ED11CE0E0D9CFC9
:1008100089E6D6018C938EE611968C93119786E625
:10082000E4CF9B0177FF02C030E020E0A1E0B0E020
:10083000911102C0B0E0A0E0F9013196AE0FBF1FE8
:100840008B2C912CBB2009F461C05401EFEFAE1A40
:10085000BE0AAA0DBB1DFA161B0619F014F04F2D87
:100860004A1B511188C0E3FC59C07601A42FB0E2A5
:10087000A1114FC0C40ED11C992309F45BC040E004
:10088000D6011196F60190836D01552309F448C0F5
:10089000012F060F9A81582F507184FF03C09133A6
:1008A00009F4015010160CF047C0093008F008E0B8
:1008B000EEE2FE2E5B01A01AB108850191948194AD
:1008C00091082F3F320729F4D601FC92F6013196A8
:1008D0006F016217730794F1021713077CF5DB01B0
:1008E000A21BB30BAA24A394B12CAC0EBD1EAA0D5F
:1008F000BB1D11968C9121503109D60111962815F6
:100900003905F4F0F60180836D01DBCFB12CA12C09
:10091000A0CFF701B1937F01A150AACF9111B0CF21
:10092000D601942F50E302C05D9391509111FCCFFA
:10093000C40ED11C40E0ACCF01E0BACF80E3DBCFE6
:100940006217730731F4963388F4953311F4552305
:1009500069F0F6018083FD01842F90E2811108C0C7
:10096000A40FB11D1C9290E080E002CF81E3F1CF93
:1009700091938150F3CF911183CF8ACF283008F023
:1009800027E03327DA01990F311D87FD916000962A
:100990006105710539F432602E5F3D9330E32A958D
:1009A000E1F708959F3F30F080387105610509F047
:1009B0003C5F3C5F3D93913008F08068911DDF9370
:1009C000CF931F930F93FF92EF92192F987F9695D5
:1009D000E92F96959695E90FFF27EE53FF4F99273C
:1009E0003327EE24FF24A701E7010590089407941C
:1009F00028F4360FE71EF81E491F511D660F771F9A
:100A0000881F991F0694A1F70590079428F4E70E14
:100A1000F81E491F561FC11D770F881F991F661F9B
:100A20000694A1F70590079428F4F80E491F561F65
:100A3000C71FD11D880F991F661F771F0694A1F746
:100A40000590079420F4490F561FC71FD81F990F10
:100A5000661F771F881F0694A9F784911095177059
:100A600041F0D695C79557954795F794E7941A9511
:100A7000C1F7E8E6F0E0689415901591359165911D
:100A8000959105907FE27395E118F10A430B560B9F
:100A9000C90BD009C0F7E10CF11E431F561FC91F37
:100AA000D01D7EF4703311F48A95E6CFE89401509E
:100AB00030F0080F0AF40027021708F4202F2395BE
:100AC000022F7A3328F079E37D932A95E9F710C055
:100AD0007D932A9589F6069497956795379517958E
:100AE0001794E118F10A430B560BC90BD00998F083
:100AF00023957E9173957A3308F070E37C932013ED
:100B0000B8F77E9170617D9330F0839571E37D93AA
:100B100070E32A95E1F71124EF90FF900F911F9158
:100B2000CF91DF91992787FD909508952F923F925D
:100B30004F925F926F927F928F929F92AF92BF92ED
:100B4000CF92DF92EF92FF920F931F93CF93DF9399
:100B5000CDB7DEB7CA1BDB0B0FB6F894DEBF0FBEF6
:100B6000CDBF09942A88398848885F846E847D8443
:100B70008C849B84AA84B984C884DF80EE80FD8045
:100B80000C811B81AA81B981CE0FD11D0FB6F894BB
:100B9000DEBF0FBECDBFED010895911108958156BE
:100BA0008A5108F4805285580895AEE0B0E0EBED2C
:100BB000F5E00C94A4050D891E8986E08C831A83C8
:100BC00009838FEF9FE79E838D83AE01475E5F4F62
:100BD0006F89788DCE0101960E94F8052F813885A6
:100BE000020F131FF80110822E96E4E00C94C0054A
:100BF000ABE0B0E0EEEFF5E00C9496057C013B0134
:100C00008A01FC0117821682838181FFC8C1CE014F
:100C100001965C01F7019381F30193FD859193FFA8
:100C200081913F01882309F453C1853239F493FD42
:100C3000859193FF81913F01853229F4B70190E0BE
:100C40000E94E807E7CF912C212C312CFFE1F3150E
:100C500038F08B3211F190F4803209F1833229F1AE
:100C600037FC3CC020ED280F2A3050F536FE20C05E
:100C70008AE0989E200D1124922E06C08D3291F0AC
:100C8000803371F7689430F8F30193FD859193FFF9
:100C900081913F018111DACF21C0689431F86894C5
:100CA00032F8F2CF689433F8EFCF689434F8ECCF91
:100CB000EAE02E9E200D1124222E689435F8E4CF10
:100CC0008E3229F436FC04C1689436F8DDCF8C36B8
:100CD00019F4689437F8D8CF8836B1F2982F9F7DF1
:100CE00095549330E0F08336A1F18337C1F1833519
:100CF00009F063C02801F2E04F0E511CF801C080DA
:100D0000D180692D70E036FC02C06FEF7FEFC60125
:100D10000E94D2074C01689437F882010AC00C5F28
:100D20001F4FFFE3F98388248394912C6501E89495
:100D300037F833FE2DC0522C8114910471F55520E3
:100D400009F468CFB70180E290E00E94E8075A9466
:100D5000F6CFF801808189830E5F1F4FE4CF280111
:100D6000F2E04F0E511CF801C080D180692D70E077
:100D700036FC02C06FEF7FEFC6010E94DD074C0119
:100D80008201D5CFB70180E290E00E94E8072A9463
:100D90002814190409F0B0F7CECFF60137FC85917D
:100DA00037FE81916F01B70190E00E94E807511072
:100DB0005A94F1E08F1A9108BFCF843619F0893622
:100DC00009F077C0F80137FE6BC0608171818281C4
:100DD00093810C5F1F4FF32DFF763F2E97FF09C0C5
:100DE00090958095709561957F4F8F4F9F4F689438
:100DF00037F82AE030E0A5010E941808C82ECA186A
:100E00008C2C432C36FE0CC0E89440F8C91440F4F6
:100E100034FE05C032FC03C0F32DFE7E4F2E892C1C
:100E200044FE95C0FE01EC0DF11D8081803309F078
:100E300087C0242D297E422E842D8870582E43FC95
:100E400095C040FE8FC09C2C821418F42C0C922C60
:100E5000981844FE91C0B70180E390E00E94E80733
:100E600042FE09C088E790E041FE02C088E590E0BC
:100E7000B7010E94E807C91408F48AC0CA94D12CAB
:100E80009FEFC91AD90ACA0CDB1CF60182916F01C7
:100E9000B70190E00E94E807AC14BD04B1F74FCF52
:100EA00060817181072E000C880B990B0E5F1F4F1C
:100EB00092CFD32CE894D4F82AE030E0853739F18A
:100EC000232D297FD22E8F3601F148F48835A9F0E1
:100ED000F701868197812B96E2E10C94B205803769
:100EE00049F08837A9F7D4FE02C06894D2F820E10F
:100EF00030E00DC06894D4F8F6CF34FE03C0822FE2
:100F00008660D82E20E132E002C028E030E0F8010F
:100F1000D7FE0FC060817181828193810C5F1F4F6A
:100F2000A5010E941808C82ECA183D2CE89437F86D
:100F300067CF6081718190E080E00E5F1F4FF0CF3E
:100F400042FC02C0839478CF8394839475CF842D20
:100F5000867809F471CFF6CFB70180E290E00E9465
:100F6000E80783948214C0F3512C73CF522C581885
:100F7000821408F46ECFF8CF842D867809F47BCFE5
:100F80008BE241FE80E247FC8DE2B70190E071CF39
:100F9000B70180E390E00E94E8079A946CCF8FEF4E
:100FA0009FEF99CFFC010590615070400110D8F778
:100FB000809590958E0F9F1F0895FC0161507040A1
:100FC00001900110D8F7809590958E0F9F1F08957E
:100FD0000F931F93CF93DF93182F092FEB018B8172
:100FE00081FD09C01FEF0FEF812F902FDF91CF916F
:100FF0001F910F91089582FF14C02E813F818C8133
:101000009D81281739073CF4E881F981CF010196C9
:101010009983888310838E819F8101969F838E831D
:10102000E3CFE885F985812F0995892BA1F3DACFE4
:10103000FA01AA27283051F1203181F1E8946F9309
:101040006E7F6E5F7F4F8F4F9F4FAF4FB1E03ED0AF
:10105000B4E03CD0670F781F891F9A1FA11D680F4D
:10106000791F8A1F911DA11D6A0F711D811D911D80
:10107000A11D20D009F468943F912AE0269F1124F5
:101080003019305D3193DEF6CF010895462F477059
:10109000405D4193B3E00FD0C9F7F6CF462F4F70B4
:1010A000405D4A3318F0495D31FD4052419302D012
:1010B000A9F7EACFB4E0A6959795879577956795B8
:1010C000BA95C9F700976105710508959B01AC01B8
:1010D0000A2E06945795479537952795BA95C9F7DF
:1010E000620F731F841F951FA01D0895F894FFCFF2
:1010F000400063397173785E793F50737638002D04
:1011000020B04346255444454F5250484C003F06BA
:0E1110005B4F666D7D077F6F2573C2B0630075
:00000001FF
